{
  "contractName": "Contents",
  "abi": [
    {
      "anonymous": false,
      "inputs": [
        {
          "indexed": true,
          "internalType": "uint256",
          "name": "contentId",
          "type": "uint256"
        }
      ],
      "name": "ContentActivation",
      "type": "event"
    },
    {
      "anonymous": false,
      "inputs": [
        {
          "indexed": true,
          "internalType": "uint256",
          "name": "contentId",
          "type": "uint256"
        }
      ],
      "name": "ContentDisabled",
      "type": "event"
    },
    {
      "anonymous": false,
      "inputs": [
        {
          "indexed": false,
          "internalType": "string",
          "name": "name",
          "type": "string"
        },
        {
          "indexed": true,
          "internalType": "uint256",
          "name": "contentId",
          "type": "uint256"
        }
      ],
      "name": "ContentsCreation",
      "type": "event"
    },
    {
      "anonymous": false,
      "inputs": [
        {
          "indexed": true,
          "internalType": "uint256",
          "name": "contentId",
          "type": "uint256"
        },
        {
          "indexed": false,
          "internalType": "bytes32[]",
          "name": "nickName",
          "type": "bytes32[]"
        },
        {
          "indexed": false,
          "internalType": "address[]",
          "name": "holderAddress",
          "type": "address[]"
        },
        {
          "indexed": false,
          "internalType": "uint256[]",
          "name": "holderPortion",
          "type": "uint256[]"
        }
      ],
      "name": "addShareInfo",
      "type": "event"
    },
    {
      "anonymous": false,
      "inputs": [
        {
          "indexed": true,
          "internalType": "uint256",
          "name": "contentId",
          "type": "uint256"
        }
      ],
      "name": "deleteShareInfo",
      "type": "event"
    },
    {
      "constant": false,
      "inputs": [
        {
          "internalType": "string",
          "name": "_name",
          "type": "string"
        }
      ],
      "name": "createContent",
      "outputs": [],
      "payable": false,
      "stateMutability": "nonpayable",
      "type": "function"
    },
    {
      "constant": false,
      "inputs": [
        {
          "internalType": "uint256",
          "name": "_contentId",
          "type": "uint256"
        },
        {
          "internalType": "bytes32[]",
          "name": "_holderName",
          "type": "bytes32[]"
        },
        {
          "internalType": "address[]",
          "name": "_holderAddress",
          "type": "address[]"
        },
        {
          "internalType": "uint256[]",
          "name": "_holderPortion",
          "type": "uint256[]"
        }
      ],
      "name": "addHolders",
      "outputs": [],
      "payable": false,
      "stateMutability": "nonpayable",
      "type": "function"
    },
    {
      "constant": false,
      "inputs": [
        {
          "internalType": "uint256",
          "name": "_contentId",
          "type": "uint256"
        }
      ],
      "name": "deleteHolders",
      "outputs": [],
      "payable": false,
      "stateMutability": "nonpayable",
      "type": "function"
    },
    {
      "constant": true,
      "inputs": [
        {
          "internalType": "uint256",
          "name": "_contentId",
          "type": "uint256"
        },
        {
          "internalType": "uint256",
          "name": "_num",
          "type": "uint256"
        }
      ],
      "name": "getHolderInfo",
      "outputs": [
        {
          "internalType": "bytes32",
          "name": "holderName",
          "type": "bytes32"
        },
        {
          "internalType": "address",
          "name": "holderAddress",
          "type": "address"
        },
        {
          "internalType": "uint256",
          "name": "holderPortion",
          "type": "uint256"
        }
      ],
      "payable": false,
      "stateMutability": "view",
      "type": "function"
    },
    {
      "constant": true,
      "inputs": [
        {
          "internalType": "uint256",
          "name": "_contentId",
          "type": "uint256"
        }
      ],
      "name": "getHolderNum",
      "outputs": [
        {
          "internalType": "uint256",
          "name": "holderNum",
          "type": "uint256"
        }
      ],
      "payable": false,
      "stateMutability": "view",
      "type": "function"
    },
    {
      "constant": true,
      "inputs": [
        {
          "internalType": "uint256",
          "name": "_contentId",
          "type": "uint256"
        }
      ],
      "name": "getContentInfo",
      "outputs": [
        {
          "internalType": "string",
          "name": "name",
          "type": "string"
        },
        {
          "internalType": "uint256",
          "name": "contentId",
          "type": "uint256"
        },
        {
          "internalType": "bool",
          "name": "active",
          "type": "bool"
        }
      ],
      "payable": false,
      "stateMutability": "view",
      "type": "function"
    },
    {
      "constant": false,
      "inputs": [
        {
          "internalType": "uint256",
          "name": "_contentId",
          "type": "uint256"
        }
      ],
      "name": "activateContent",
      "outputs": [],
      "payable": false,
      "stateMutability": "nonpayable",
      "type": "function"
    },
    {
      "constant": false,
      "inputs": [
        {
          "internalType": "uint256",
          "name": "_contentId",
          "type": "uint256"
        }
      ],
      "name": "disableContent",
      "outputs": [],
      "payable": false,
      "stateMutability": "nonpayable",
      "type": "function"
    }
  ],
  "bytecode": "0x6080604052600060025534801561001557600080fd5b50610f16806100256000396000f3fe608060405234801561001057600080fd5b50600436106100885760003560e01c806379102d571161005b57806379102d57146101f0578063a5202e6714610239578063c6b9cdae1461034e578063d6bfdb2a1461036b57610088565b8063110a144f1461008d5780632e310f1e146100ac578063497cc841146100db5780637509c33014610149575b600080fd5b6100aa600480360360208110156100a357600080fd5b5035610388565b005b6100c9600480360360208110156100c257600080fd5b50356103e9565b60408051918252519081900360200190f35b6100aa600480360360208110156100f157600080fd5b810190602081018135600160201b81111561010b57600080fd5b82018360208201111561011d57600080fd5b803590602001918460018302840111600160201b8311171561013e57600080fd5b5090925090506104eb565b6101666004803603602081101561015f57600080fd5b503561052e565b604051808060200184815260200183151515158152602001828103825285818151815260200191508051906020019080838360005b838110156101b357818101518382015260200161019b565b50505050905090810190601f1680156101e05780820380516001836020036101000a031916815260200191505b5094505050505060405180910390f35b6102136004803603604081101561020657600080fd5b5080359060200135610639565b604080519384526001600160a01b03909216602084015282820152519081900360600190f35b6100aa6004803603608081101561024f57600080fd5b81359190810190604081016020820135600160201b81111561027057600080fd5b82018360208201111561028257600080fd5b803590602001918460208302840111600160201b831117156102a357600080fd5b919390929091602081019035600160201b8111156102c057600080fd5b8201836020820111156102d257600080fd5b803590602001918460208302840111600160201b831117156102f357600080fd5b919390929091602081019035600160201b81111561031057600080fd5b82018360208201111561032257600080fd5b803590602001918460208302840111600160201b8311171561034357600080fd5b5090925090506107be565b6100aa6004803603602081101561036457600080fd5b5035610866565b6100aa6004803603602081101561038157600080fd5b50356108ce565b60008181526001602052604090206002015460ff166103a657600080fd5b600081815260016020526040808220600201805460ff191690555182917fbf6a6fb4ce843a3103874f63696a7008f788f7e74b5885c1a489110363db4d4b91a250565b600081815260208190526040812060020154610438576040805162461bcd60e51b81526020600482015260096024820152683737903437b63232b960b91b604482015290519081900360640190fd5b600082815260208190526040902060020154610488576040805162461bcd60e51b815260206004820152600a6024820152693737903837b93a34b7b760b11b604482015290519081900360640190fd5b6000828152602081905260409020600101546104d5576040805162461bcd60e51b81526020600482015260076024820152666e6f206e616d6560c81b604482015290519081900360640190fd5b5060009081526020819052604090206002015490565b61052a82828080601f0160208091040260200160405190810160405280939291908181526020018383808284376000920191909152506108da92505050565b5050565b60606000806002548410610580576040805162461bcd60e51b815260206004820152601460248201527318dbdb9d195b9d081a5cc81b9bdd08195e1a5cdd60621b604482015290519081900360640190fd5b60008481526001602081815260409283902080830154600280830154835487516101009782161597909702600019011691909104601f81018590048502860185019096528585529194909360ff909216928591908301828280156106255780601f106105fa57610100808354040283529160200191610625565b820191906000526020600020905b81548152906001019060200180831161060857829003601f168201915b505050505092509250925092509193909250565b6000828152602081905260408120600201548190819061068c576040805162461bcd60e51b81526020600482015260096024820152683737903437b63232b960b91b604482015290519081900360640190fd5b6000858152602081905260409020600301546106dc576040805162461bcd60e51b815260206004820152600a6024820152693737903837b93a34b7b760b11b604482015290519081900360640190fd5b600085815260208190526040902060010154610729576040805162461bcd60e51b81526020600482015260076024820152666e6f206e616d6560c81b604482015290519081900360640190fd5b600085815260208190526040902060010180548590811061074657fe5b9060005260206000200154600080878152602001908152602001600020600201858154811061077157fe5b600091825260208083209091015488835290829052604090912060030180546001600160a01b0390921691879081106107a657fe5b90600052602060002001549250925092509250925092565b61085d8787878080602002602001604051908101604052809392919081815260200183836020028082843760009201919091525050604080516020808b0282810182019093528a82529093508a92508991829185019084908082843760009201919091525050604080516020808a028281018201909352898252909350899250889182918501908490808284376000920191909152506109f892505050565b50505050505050565b60008181526001602052604090206002015460ff161561088557600080fd5b6000818152600160208190526040808320600201805460ff19169092179091555182917f0945459ccc5aecff19509681cca776f90b90235bc5cf16ea9d1413e9be14b06591a250565b6108d781610cac565b50565b6108e2610dfa565b5060408051606081018252828152600254602080830182905260008385018190529182526001815292902081518051929384936109229284920190610e1d565b5060208281015160018301556040928301516002928301805460ff191691151591909117905590548251828152855181840152855191937f512882de450b93ef9e78c553b2776dba213e405ae58f9920294d899d55ce631f938793839283019185019080838360005b838110156109a357818101518382015260200161098b565b50505050905090810190601f1680156109d05780820380516001836020036101000a031916815260200191505b509250505060405180910390a26002546109f190600163ffffffff610d9916565b6002555050565b8051825114610a4e576040805162461bcd60e51b815260206004820181905260248201527f686f6c64657220616e6420706f7274696f6e20617265206e6f74206d61746368604482015290519081900360640190fd5b6000805b8251811015610a8b57610a8182848381518110610a6b57fe5b6020026020010151610d9990919063ffffffff16565b9150600101610a52565b5080600a14610ad9576040805162461bcd60e51b81526020600482015260156024820152740706f7274696f6e2073756d206973206e6f7420313605c1b604482015290519081900360640190fd5b60005b8351811015610ba2576000858281518110610af357fe5b602002602001015190506000858381518110610b0b57fe5b602002602001015190506000858481518110610b2357fe5b60209081029190910181015160008b815280835260408120600180820180548083018255908452858420019790975560028101805480890182559083528483200180546001600160a01b0319166001600160a01b0397909716969096179095556003909401805480870182559085529190932001919091555001610adc565b50847fdfc653e4fc461f17e9b6f85aa480e768beae19584c7f329fb06603fc81a3210385858560405180806020018060200180602001848103845287818151815260200191508051906020019060200280838360005b83811015610c10578181015183820152602001610bf8565b50505050905001848103835286818151815260200191508051906020019060200280838360005b83811015610c4f578181015183820152602001610c37565b50505050905001848103825285818151815260200191508051906020019060200280838360005b83811015610c8e578181015183820152602001610c76565b50505050905001965050505050505060405180910390a25050505050565b6000818152602081905260409020600381015460029091015414610d17576040805162461bcd60e51b815260206004820181905260248201527f686f6c64657220616e6420706f7274696f6e20617265206e6f74206d61746368604482015290519081900360640190fd5b6000818152602081905260408120610d329060010182610e9b565b506000818152602081905260408120610d4e9060020182610e9b565b506000818152602081905260408120610d6a9060030182610e9b565b5060405181907fb0b9543950a7fb1f3258b2fbc72b2b4924eb658108967d0d1d45c44c4a737abb90600090a250565b600082820183811015610df3576040805162461bcd60e51b815260206004820152601b60248201527f536166654d6174683a206164646974696f6e206f766572666c6f770000000000604482015290519081900360640190fd5b9392505050565b604051806060016040528060608152602001600081526020016000151581525090565b828054600181600116156101000203166002900490600052602060002090601f016020900481019282601f10610e5e57805160ff1916838001178555610e8b565b82800160010185558215610e8b579182015b82811115610e8b578251825591602001919060010190610e70565b50610e97929150610ec4565b5090565b815481835581811115610ebf57600083815260209020610ebf918101908301610ec4565b505050565b610ede91905b80821115610e975760008155600101610eca565b9056fea265627a7a7231582083ae76a3aaaec3f929ad23e93890aa714f3af84789681055a9b1986e41de34a164736f6c63430005110032",
  "source": "pragma solidity ^0.5.17;\n\nimport \"./interface/IContents.sol\";\nimport \"./library/SafeMath.sol\";\n\n\ncontract Contents is IContents {\n\n    mapping (uint256 => ShareHolders) internal _shareInfo;\n\n    mapping (uint256 => Contents) internal _contentList;\n\n    event ContentsCreation (string name, uint256 indexed contentId );\n\n    event addShareInfo (uint256 indexed contentId, bytes32[] nickName, address[] holderAddress, uint256[] holderPortion );\n\n    event deleteShareInfo ( uint256 indexed contentId );\n\n    event ContentActivation ( uint256 indexed contentId );\n\n    event ContentDisabled ( uint256 indexed contentId );\n\n    using SafeMath for uint256;\n\n    uint256 counterContent = 0;\n\n    struct Contents {\n        string name;\n        uint256 contentId;\n        bool active;\n    }\n\n    struct ShareHolders {\n        uint256 contentId;\n        bytes32[] holderName;\n        address[] holderAddress;\n        uint256[] holderPortion;\n    }\n\n    function createContent(string calldata _name) external {\n        _createContent(_name);\n    }\n\n    function addHolders(uint256 _contentId, bytes32[] calldata _holderName, address[] calldata _holderAddress, uint256[] calldata _holderPortion) external {\n        _addHolders(_contentId, _holderName, _holderAddress, _holderPortion);\n    }\n\n    function deleteHolders(uint256 _contentId) external {\n        _deleteHolders(_contentId);\n    }\n\n    function getHolderInfo(uint256 _contentId, uint256 _num) external view returns(bytes32 holderName, address holderAddress, uint256 holderPortion){\n        require(_shareInfo[_contentId].holderAddress.length != 0, 'no holder');\n        require(_shareInfo[_contentId].holderPortion.length != 0, 'no portion');\n        require(_shareInfo[_contentId].holderName.length != 0, 'no name');\n        return(\n            _shareInfo[_contentId].holderName[_num],\n            _shareInfo[_contentId].holderAddress[_num],\n            _shareInfo[_contentId].holderPortion[_num]\n        );\n    }\n\n    function getHolderNum(uint256 _contentId) external view returns( uint256 holderNum ){\n        require(_shareInfo[_contentId].holderAddress.length != 0, 'no holder');\n        require(_shareInfo[_contentId].holderAddress.length != 0, 'no portion');\n        require(_shareInfo[_contentId].holderName.length != 0, 'no name');\n        return(\n            _shareInfo[_contentId].holderAddress.length\n        );\n    }\n\n    function getContentInfo(uint256 _contentId) external view returns(string memory name, uint256 contentId, bool active){\n        require(_contentId < counterContent, 'content is not exist');\n        return(\n            _contentList[_contentId].name,\n            _contentList[_contentId].contentId,\n            _contentList[_contentId].active\n        );\n    }\n\n    function activateContent(uint256 _contentId) external {\n        require(_contentList[_contentId].active);\n        _contentList[_contentId].active = false;\n        emit ContentActivation(_contentId);\n    }\n\n    function disableContent(uint256 _contentId) external {\n        require(!_contentList[_contentId].active);\n        _contentList[_contentId].active = true;\n        emit ContentDisabled(_contentId);\n    }\n\n    function _createContent(string memory _name) internal {\n        Contents memory Content = Contents({\n            name : _name,\n            contentId : counterContent,\n            active : false\n        });\n        _contentList[counterContent] = Content;\n        emit ContentsCreation(_name, counterContent);\n        counterContent = counterContent.add(1);\n    }\n\n    function _addHolders(uint256 _contentId, bytes32[] memory _holderName, address[] memory _holderAddress, uint256[] memory _holderPortion) internal {\n        require(_holderAddress.length == _holderPortion.length, 'holder and portion are not match');\n        uint256 counter = 0;\n        for(uint i = 0 ; i < _holderPortion.length ; i++) counter = _holderPortion[i].add(counter);\n        require(counter == 10 , 'portion sum is not 10');\n        for(uint i = 0 ; i < _holderAddress.length; i++){\n            bytes32 holderName = _holderName[i];\n            address holderAddress = _holderAddress[i];\n            uint256 holderPortion = _holderPortion[i];\n            _shareInfo[_contentId].holderName.push(holderName);\n            _shareInfo[_contentId].holderAddress.push(holderAddress);\n            _shareInfo[_contentId].holderPortion.push(holderPortion);\n        }\n        emit addShareInfo(_contentId, _holderName, _holderAddress, _holderPortion);\n    }\n\n    function _deleteHolders(uint256 _contentId) internal {\n        require(_shareInfo[_contentId].holderAddress.length == _shareInfo[_contentId].holderPortion.length, 'holder and portion are not match');\n        _shareInfo[_contentId].holderName.length = 0;\n        _shareInfo[_contentId].holderAddress.length = 0;\n        _shareInfo[_contentId].holderPortion.length = 0;\n        emit deleteShareInfo(_contentId);\n    }\n}\n",
  "sourcePath": "/Users/WOOK/Development/haechilabs/Staby/contracts/Contents.sol",
  "compiler": {
    "name": "solc",
    "version": "0.5.17+commit.d19bba13.Emscripten.clang"
  },
  "schemaVersion": "3.3.2",
  "updatedAt": "2020-11-11T05:50:46.238Z",
  "devdoc": {
    "methods": {}
  },
  "userdoc": {
    "methods": {}
  }
}