{
  "contractName": "Contents",
  "abi": [
    {
      "inputs": [],
      "payable": false,
      "stateMutability": "nonpayable",
      "type": "constructor"
    },
    {
      "anonymous": false,
      "inputs": [
        {
          "indexed": true,
          "internalType": "uint256",
          "name": "contentId",
          "type": "uint256"
        },
        {
          "indexed": false,
          "internalType": "bytes32[]",
          "name": "nickName",
          "type": "bytes32[]"
        },
        {
          "indexed": false,
          "internalType": "address[]",
          "name": "holderAddress",
          "type": "address[]"
        },
        {
          "indexed": false,
          "internalType": "uint256[]",
          "name": "holderPortion",
          "type": "uint256[]"
        }
      ],
      "name": "AddShareInfo",
      "type": "event"
    },
    {
      "anonymous": false,
      "inputs": [
        {
          "indexed": true,
          "internalType": "uint256",
          "name": "contentId",
          "type": "uint256"
        }
      ],
      "name": "ContentActivation",
      "type": "event"
    },
    {
      "anonymous": false,
      "inputs": [
        {
          "indexed": true,
          "internalType": "uint256",
          "name": "contentId",
          "type": "uint256"
        }
      ],
      "name": "ContentDeactivated",
      "type": "event"
    },
    {
      "anonymous": false,
      "inputs": [
        {
          "indexed": false,
          "internalType": "string",
          "name": "name",
          "type": "string"
        },
        {
          "indexed": true,
          "internalType": "uint256",
          "name": "contentId",
          "type": "uint256"
        }
      ],
      "name": "ContentsCreation",
      "type": "event"
    },
    {
      "anonymous": false,
      "inputs": [
        {
          "indexed": true,
          "internalType": "uint256",
          "name": "contentId",
          "type": "uint256"
        }
      ],
      "name": "DeleteShareInfo",
      "type": "event"
    },
    {
      "anonymous": false,
      "inputs": [
        {
          "indexed": true,
          "internalType": "address",
          "name": "currentOwner",
          "type": "address"
        },
        {
          "indexed": true,
          "internalType": "address",
          "name": "newOwner",
          "type": "address"
        }
      ],
      "name": "OwnershipTransferred",
      "type": "event"
    },
    {
      "constant": true,
      "inputs": [],
      "name": "owner",
      "outputs": [
        {
          "internalType": "address",
          "name": "ownerAddress",
          "type": "address"
        }
      ],
      "payable": false,
      "stateMutability": "view",
      "type": "function"
    },
    {
      "constant": false,
      "inputs": [],
      "name": "renounceOwnership",
      "outputs": [
        {
          "internalType": "bool",
          "name": "success",
          "type": "bool"
        }
      ],
      "payable": false,
      "stateMutability": "nonpayable",
      "type": "function"
    },
    {
      "constant": false,
      "inputs": [
        {
          "internalType": "string",
          "name": "_name",
          "type": "string"
        }
      ],
      "name": "createContent",
      "outputs": [],
      "payable": false,
      "stateMutability": "nonpayable",
      "type": "function"
    },
    {
      "constant": false,
      "inputs": [
        {
          "internalType": "uint256",
          "name": "_contentId",
          "type": "uint256"
        },
        {
          "internalType": "bytes32[]",
          "name": "_holderName",
          "type": "bytes32[]"
        },
        {
          "internalType": "address[]",
          "name": "_holderAddress",
          "type": "address[]"
        },
        {
          "internalType": "uint256[]",
          "name": "_holderPortion",
          "type": "uint256[]"
        }
      ],
      "name": "addHolders",
      "outputs": [],
      "payable": false,
      "stateMutability": "nonpayable",
      "type": "function"
    },
    {
      "constant": false,
      "inputs": [
        {
          "internalType": "uint256",
          "name": "_contentId",
          "type": "uint256"
        }
      ],
      "name": "deleteHolders",
      "outputs": [],
      "payable": false,
      "stateMutability": "nonpayable",
      "type": "function"
    },
    {
      "constant": false,
      "inputs": [
        {
          "internalType": "uint256",
          "name": "_contentId",
          "type": "uint256"
        },
        {
          "internalType": "bytes32[]",
          "name": "_holderName",
          "type": "bytes32[]"
        },
        {
          "internalType": "address[]",
          "name": "_holderAddress",
          "type": "address[]"
        },
        {
          "internalType": "uint256[]",
          "name": "_holderPortion",
          "type": "uint256[]"
        }
      ],
      "name": "updateHolders",
      "outputs": [],
      "payable": false,
      "stateMutability": "nonpayable",
      "type": "function"
    },
    {
      "constant": false,
      "inputs": [
        {
          "internalType": "uint256",
          "name": "_contentId",
          "type": "uint256"
        }
      ],
      "name": "activateContent",
      "outputs": [],
      "payable": false,
      "stateMutability": "nonpayable",
      "type": "function"
    },
    {
      "constant": false,
      "inputs": [
        {
          "internalType": "uint256",
          "name": "_contentId",
          "type": "uint256"
        }
      ],
      "name": "deactivateContent",
      "outputs": [],
      "payable": false,
      "stateMutability": "nonpayable",
      "type": "function"
    },
    {
      "constant": true,
      "inputs": [
        {
          "internalType": "uint256",
          "name": "_contentId",
          "type": "uint256"
        }
      ],
      "name": "getContentInfo",
      "outputs": [
        {
          "internalType": "string",
          "name": "name",
          "type": "string"
        },
        {
          "internalType": "uint256",
          "name": "contentId",
          "type": "uint256"
        },
        {
          "internalType": "bool",
          "name": "disabled",
          "type": "bool"
        }
      ],
      "payable": false,
      "stateMutability": "view",
      "type": "function"
    },
    {
      "constant": true,
      "inputs": [
        {
          "internalType": "uint256",
          "name": "_contentId",
          "type": "uint256"
        },
        {
          "internalType": "uint256",
          "name": "_num",
          "type": "uint256"
        }
      ],
      "name": "getHolderInfo",
      "outputs": [
        {
          "internalType": "bytes32",
          "name": "holderName",
          "type": "bytes32"
        },
        {
          "internalType": "address",
          "name": "holderAddress",
          "type": "address"
        },
        {
          "internalType": "uint256",
          "name": "holderPortion",
          "type": "uint256"
        }
      ],
      "payable": false,
      "stateMutability": "view",
      "type": "function"
    },
    {
      "constant": true,
      "inputs": [
        {
          "internalType": "uint256",
          "name": "_contentId",
          "type": "uint256"
        }
      ],
      "name": "getHolderNum",
      "outputs": [
        {
          "internalType": "uint256",
          "name": "holderNum",
          "type": "uint256"
        }
      ],
      "payable": false,
      "stateMutability": "view",
      "type": "function"
    },
    {
      "constant": true,
      "inputs": [],
      "name": "denominator",
      "outputs": [
        {
          "internalType": "uint256",
          "name": "",
          "type": "uint256"
        }
      ],
      "payable": false,
      "stateMutability": "view",
      "type": "function"
    },
    {
      "constant": true,
      "inputs": [],
      "name": "contentCounter",
      "outputs": [
        {
          "internalType": "uint256",
          "name": "contentCounter",
          "type": "uint256"
        }
      ],
      "payable": false,
      "stateMutability": "view",
      "type": "function"
    }
  ],
  "bytecode": "0x6080604052600060035534801561001557600080fd5b50600080546001600160a01b0319163390811782556040519091907f8be0079c531659141344cd1fd0a4f28419497f9722a3daafe3b4186f6b6457e0908290a36113b0806100646000396000f3fe608060405234801561001057600080fd5b50600436106100cf5760003560e01c80638da5cb5b1161008c578063b37f4c9b11610066578063b37f4c9b146103dd578063d6bfdb2a146104f2578063e6a9aba31461050f578063f2d0811f14610517576100cf565b80638da5cb5b1461029c57806396ce0795146102c0578063a5202e67146102c8576100cf565b8063110a144f146100d45780632e310f1e146100f3578063497cc84114610122578063715018a6146101905780637509c330146101ac57806379102d5714610253575b600080fd5b6100f1600480360360208110156100ea57600080fd5b5035610534565b005b6101106004803603602081101561010957600080fd5b5035610589565b60408051918252519081900360200190f35b6100f16004803603602081101561013857600080fd5b810190602081018135600160201b81111561015257600080fd5b82018360208201111561016457600080fd5b803590602001918460018302840111600160201b8311171561018557600080fd5b5090925090506105c0565b61019861064c565b604080519115158252519081900360200190f35b6101c9600480360360208110156101c257600080fd5b50356106a5565b604051808060200184815260200183151515158152602001828103825285818151815260200191508051906020019080838360005b838110156102165781810151838201526020016101fe565b50505050905090810190601f1680156102435780820380516001836020036101000a031916815260200191505b5094505050505060405180910390f35b6102766004803603604081101561026957600080fd5b50803590602001356107af565b604080519384526001600160a01b03909216602084015282820152519081900360600190f35b6102a461089a565b604080516001600160a01b039092168252519081900360200190f35b6101106108a9565b6100f1600480360360808110156102de57600080fd5b81359190810190604081016020820135600160201b8111156102ff57600080fd5b82018360208201111561031157600080fd5b803590602001918460208302840111600160201b8311171561033257600080fd5b919390929091602081019035600160201b81111561034f57600080fd5b82018360208201111561036157600080fd5b803590602001918460208302840111600160201b8311171561038257600080fd5b919390929091602081019035600160201b81111561039f57600080fd5b8201836020820111156103b157600080fd5b803590602001918460208302840111600160201b831117156103d257600080fd5b5090925090506108b1565b6100f1600480360360808110156103f357600080fd5b81359190810190604081016020820135600160201b81111561041457600080fd5b82018360208201111561042657600080fd5b803590602001918460208302840111600160201b8311171561044757600080fd5b919390929091602081019035600160201b81111561046457600080fd5b82018360208201111561047657600080fd5b803590602001918460208302840111600160201b8311171561049757600080fd5b919390929091602081019035600160201b8111156104b457600080fd5b8201836020820111156104c657600080fd5b803590602001918460208302840111600160201b831117156104e757600080fd5b5090925090506109a2565b6100f16004803603602081101561050857600080fd5b5035610a4b565b610110610a9d565b6100f16004803603602081101561052d57600080fd5b5035610aa3565b6000546001600160a01b0316331461057d5760405162461bcd60e51b815260040180806020018281038252602f81526020018061134d602f913960400191505060405180910390fd5b61058681610af5565b50565b6000818152600160205260408120600201546105a7575060006105bb565b506000818152600160205260409020600201545b919050565b6000546001600160a01b031633146106095760405162461bcd60e51b815260040180806020018281038252602f81526020018061134d602f913960400191505060405180910390fd5b61064882828080601f016020809104026020016040519081016040528093929190818152602001838380828437600092019190915250610ba192505050565b5050565b600080546001600160a01b031633146106965760405162461bcd60e51b815260040180806020018281038252602f81526020018061134d602f913960400191505060405180910390fd5b6106a06000610d0a565b905090565b606060008060035484106106f7576040805162461bcd60e51b815260206004820152601460248201527318dbdb9d195b9d081a5cc81b9bdd08195e1a5cdd60621b604482015290519081900360640190fd5b60008481526002602081815260409283902060018082015482850154835487516101009482161594909402600019011695909504601f81018590048502830185019096528582529194919360ff16929091859183018282801561079b5780601f106107705761010080835404028352916020019161079b565b820191906000526020600020905b81548152906001019060200180831161077e57829003601f168201915b505050505092509250925092509193909250565b60008281526001602052604081206002015481908190610802576040805162461bcd60e51b81526020600482015260096024820152683737903437b63232b960b91b604482015290519081900360640190fd5b60008581526001602081905260409091200180548590811061082057fe5b906000526020600020015460016000878152602001908152602001600020600201858154811061084c57fe5b60009182526020808320909101548883526001909152604090912060030180546001600160a01b03909216918790811061088257fe5b90600052602060002001549250925092509250925092565b6000546001600160a01b031690565b620186a05b90565b6000546001600160a01b031633146108fa5760405162461bcd60e51b815260040180806020018281038252602f81526020018061134d602f913960400191505060405180910390fd5b6109998787878080602002602001604051908101604052809392919081815260200183836020028082843760009201919091525050604080516020808b0282810182019093528a82529093508a92508991829185019084908082843760009201919091525050604080516020808a02828101820190935289825290935089925088918291850190849080828437600092019190915250610d6a92505050565b50505050505050565b6000546001600160a01b031633146109eb5760405162461bcd60e51b815260040180806020018281038252602f81526020018061134d602f913960400191505060405180910390fd5b600087815260016020526040902060020154610a42576040805162461bcd60e51b8152602060048201526011602482015270185919081a1bdb19195c9cc8199a5c9cdd607a1b604482015290519081900360640190fd5b6108fa876110ae565b6000546001600160a01b03163314610a945760405162461bcd60e51b815260040180806020018281038252602f81526020018061134d602f913960400191505060405180910390fd5b610586816110ae565b60035490565b6000546001600160a01b03163314610aec5760405162461bcd60e51b815260040180806020018281038252602f81526020018061134d602f913960400191505060405180910390fd5b61058681611130565b6000818152600260208190526040909120015460ff16610b5c576040805162461bcd60e51b815260206004820152601c60248201527f636f6e74656e7420697320616c72656164792061637469766174656400000000604482015290519081900360640190fd5b6000818152600260208190526040808320909101805460ff191690555182917fbf6a6fb4ce843a3103874f63696a7008f788f7e74b5885c1a489110363db4d4b91a250565b6000546001600160a01b03163314610bea5760405162461bcd60e51b815260040180806020018281038252602f81526020018061134d602f913960400191505060405180910390fd5b610bf2611241565b506040805160608101825282815260035460208083018290526001838501526000918252600281529290208151805192938493610c329284920190611264565b5060208281015160018301556040928301516002909201805460ff1916921515929092179091556003548251828152855181840152855191937f512882de450b93ef9e78c553b2776dba213e405ae58f9920294d899d55ce631f938793839283019185019080838360005b83811015610cb5578181015183820152602001610c9d565b50505050905090810190601f168015610ce25780820380516001836020036101000a031916815260200191505b509250505060405180910390a2600354610d0390600163ffffffff6111e016565b6003555050565b600080546040516001600160a01b038085169216907f8be0079c531659141344cd1fd0a4f28419497f9722a3daafe3b4186f6b6457e0908490a350600080546001600160a01b0319166001600160a01b0392909216919091179055600190565b8051825114610db7576040805162461bcd60e51b815260206004820152601460248201527311a0b2323932b9b990109e9011a837b93a34b7b760611b604482015290519081900360640190fd5b8251825114610e01576040805162461bcd60e51b8152602060048201526011602482015270234164647265737320213d20234e616d6560781b604482015290519081900360640190fd5b606482511115610e58576040805162461bcd60e51b815260206004820152601860248201527f23486f6c6465722073686f756c6420756e646572203130300000000000000000604482015290519081900360640190fd5b6000805b8251811015610e9557610e8b82848381518110610e7557fe5b60200260200101516111e090919063ffffffff16565b9150600101610e5c565b50620186a08114610ed75760405162461bcd60e51b81526004018080602001828103825260278152602001806113266027913960400191505060405180910390fd5b60005b8351811015610fa4576000858281518110610ef157fe5b602002602001015190506000858381518110610f0957fe5b602002602001015190506000858481518110610f2157fe5b60209081029190910181015160008b815260018084526040822080820180548084018255908452858420019790975560028701805480830182559083528483200180546001600160a01b0319166001600160a01b039790971696909617909555600390950180548086018255908652919094200192909255919091019050610eda565b50847f7fdc3be55fd70578ec574721222c407924240629b4895267ce002eb5af32318185858560405180806020018060200180602001848103845287818151815260200191508051906020019060200280838360005b83811015611012578181015183820152602001610ffa565b50505050905001848103835286818151815260200191508051906020019060200280838360005b83811015611051578181015183820152602001611039565b50505050905001848103825285818151815260200191508051906020019060200280838360005b83811015611090578181015183820152602001611078565b50505050905001965050505050505060405180910390a25050505050565b600081815260016020819052604082206110c99101826112e2565b5060008181526001602052604081206110e590600201826112e2565b50600081815260016020526040812061110190600301826112e2565b5060405181907f1e1ba1f4aeda40b28c4217dc1b42780577e8817dba6b427eb9ac27789866dfa390600090a250565b6000818152600260208190526040909120015460ff1615611198576040805162461bcd60e51b815260206004820152601e60248201527f636f6e74656e7420697320616c72656164792064656163746976617465640000604482015290519081900360640190fd5b6000818152600260208190526040808320909101805460ff191660011790555182917f87eca800c5aafd6414b5e7f7f64649c6a947da66c7fdcbaa2b856462d388e25b91a250565b60008282018381101561123a576040805162461bcd60e51b815260206004820152601b60248201527f536166654d6174683a206164646974696f6e206f766572666c6f770000000000604482015290519081900360640190fd5b9392505050565b604051806060016040528060608152602001600081526020016000151581525090565b828054600181600116156101000203166002900490600052602060002090601f016020900481019282601f106112a557805160ff19168380011785556112d2565b828001600101855582156112d2579182015b828111156112d25782518255916020019190600101906112b7565b506112de92915061130b565b5090565b8154818355818111156113065760008381526020902061130691810190830161130b565b505050565b6108ae91905b808211156112de576000815560010161131156fe706f7274696f6e2073756d206973206e6f7420657175616c20746f2064656e6f6d696e61746f724f776e61626c65203a2046756e6374696f6e2063616c6c656420627920756e617574686f72697a656420757365722ea265627a7a723158207288b874c9f1ce6299768b9212be9759db47e56d6e44af26e3c5a6b6c25cbd1064736f6c63430005110032",
  "source": "pragma solidity ^0.5.17;\n\nimport \"./interface/IContents.sol\";\nimport \"./library/SafeMath.sol\";\nimport \"./role/Ownable.sol\";\n\n\ncontract Contents is IContents, Ownable {\n\n    mapping (uint256 => ShareHolders) internal _shareInfo;\n    mapping (uint256 => Contents) internal _contentList;\n\n    using SafeMath for uint256;\n\n    uint256 internal _contentCounter = 0;\n    uint256 constant private DENOMINATOR = 100000;\n\n    // 컨텐츠에 대한 정보\n    struct Contents {\n        string name;  // 컨텐츠 이름\n        uint256 contentId;  // 컨텐츠 ID\n        bool disabled;  // 컨텐츠 활성상태 (on : false)\n    }\n\n    // 지분에 대한 정보\n    struct ShareHolders {\n        uint256 contentId;  // 컨텐츠 ID\n        bytes32[] holderName; // 지분 소유자 닉네임\n        address[] holderAddress;  // 지분 소유자 주소\n        uint256[] holderPortion;  // 지분 얼만큼 (0~10)\n    }\n\n    constructor() public {}\n\n    function createContent(string calldata _name) external onlyOwner {\n        _createContent(_name);\n    }\n\n    function addHolders(uint256 _contentId, bytes32[] calldata _holderName, address[] calldata _holderAddress, uint256[] calldata _holderPortion) external onlyOwner {\n        _addHolders(_contentId, _holderName, _holderAddress, _holderPortion);\n    }\n\n    function deleteHolders(uint256 _contentId) external onlyOwner {\n        _deleteHolders(_contentId);\n    }\n\n    function updateHolders(uint256 _contentId, bytes32[] calldata _holderName, address[] calldata _holderAddress, uint256[] calldata _holderPortion) external onlyOwner {\n        require(_shareInfo[_contentId].holderAddress.length != 0, 'add holders first');\n        _deleteHolders(_contentId);\n        _addHolders(_contentId, _holderName, _holderAddress, _holderPortion);\n    }\n\n    function activateContent(uint256 _contentId) external onlyOwner {\n        _activateContent(_contentId);\n    }\n\n    function deactivateContent(uint256 _contentId) external onlyOwner {\n        _deactivateContent(_contentId);\n    }\n\n    function getContentInfo(uint256 _contentId) external view returns(string memory name, uint256 contentId, bool disabled) {\n        require(_contentId < _contentCounter, 'content is not exist');\n        return(\n            _contentList[_contentId].name,\n            _contentList[_contentId].contentId,\n            _contentList[_contentId].disabled\n        );\n    }\n\n    function getHolderInfo(uint256 _contentId, uint256 _num) external view returns(bytes32 holderName, address holderAddress, uint256 holderPortion) {\n        require(_shareInfo[_contentId].holderAddress.length != 0, 'no holder');\n        return(\n            _shareInfo[_contentId].holderName[_num],\n            _shareInfo[_contentId].holderAddress[_num],\n            _shareInfo[_contentId].holderPortion[_num]\n        );\n    }\n\n    function getHolderNum(uint256 _contentId) external view returns( uint256 holderNum ) {\n        if (_shareInfo[_contentId].holderAddress.length == 0) return 0;\n        else return(_shareInfo[_contentId].holderAddress.length);\n    }\n\n    function denominator() external view returns(uint256) {\n        return DENOMINATOR;\n    }\n\n    function contentCounter() external view returns(uint256 contentCounter) {\n        return(_contentCounter);\n    }\n\n    function _createContent(string memory _name) internal onlyOwner {\n        Contents memory Content = Contents({\n            name : _name,\n            contentId : _contentCounter,\n            disabled : true\n        });\n        _contentList[_contentCounter] = Content;\n        emit ContentsCreation(_name, _contentCounter);\n        _contentCounter = _contentCounter.add(1);\n    }\n\n    function _addHolders(uint256 _contentId, bytes32[] memory _holderName, address[] memory _holderAddress, uint256[] memory _holderPortion) internal {\n        require(_holderAddress.length == _holderPortion.length, '#Address != #Portion');\n        require(_holderAddress.length == _holderName.length, '#Address != #Name');\n        require(_holderAddress.length <= 100, \"#Holder should under 100\");\n        uint256 counter = 0;\n        for(uint i = 0 ; i < _holderPortion.length ; i++) counter = _holderPortion[i].add(counter);\n        require(counter == DENOMINATOR , 'portion sum is not equal to denominator');\n        for(uint i = 0 ; i < _holderAddress.length; i++){\n            bytes32 holderName = _holderName[i];\n            address holderAddress = _holderAddress[i];\n            uint256 holderPortion = _holderPortion[i];\n            _shareInfo[_contentId].holderName.push(holderName);\n            _shareInfo[_contentId].holderAddress.push(holderAddress);\n            _shareInfo[_contentId].holderPortion.push(holderPortion);\n        }\n        emit AddShareInfo(_contentId, _holderName, _holderAddress, _holderPortion);\n    }\n\n    function _deleteHolders(uint256 _contentId) internal {\n        _shareInfo[_contentId].holderName.length = 0;\n        _shareInfo[_contentId].holderAddress.length = 0;\n        _shareInfo[_contentId].holderPortion.length = 0;\n        emit DeleteShareInfo(_contentId);\n    }\n\n    function _activateContent(uint256 _contentId) internal {\n        require(_contentList[_contentId].disabled, 'content is already activated');\n        _contentList[_contentId].disabled = false;\n        emit ContentActivation(_contentId);\n    }\n\n    function _deactivateContent(uint256 _contentId) internal {\n        require(!_contentList[_contentId].disabled, 'content is already deactivated');\n        _contentList[_contentId].disabled = true;\n        emit ContentDeactivated(_contentId);\n    }\n}\n",
  "sourcePath": "/Users/wookyang/Development/haechilabs/StreamProtocol/contracts/Contents.sol",
  "compiler": {
    "name": "solc",
    "version": "0.5.17+commit.d19bba13.Emscripten.clang"
  },
  "schemaVersion": "3.3.2",
  "updatedAt": "2020-12-14T10:09:15.803Z",
  "networkType": "ethereum",
  "devdoc": {
    "methods": {}
  },
  "userdoc": {
    "methods": {}
  }
}