{
  "contractName": "Contents",
  "abi": [
    {
      "anonymous": false,
      "inputs": [
        {
          "indexed": false,
          "internalType": "string",
          "name": "name",
          "type": "string"
        },
        {
          "indexed": true,
          "internalType": "uint256",
          "name": "contentId",
          "type": "uint256"
        }
      ],
      "name": "ContentsCreation",
      "type": "event"
    },
    {
      "constant": false,
      "inputs": [
        {
          "internalType": "string",
          "name": "_name",
          "type": "string"
        }
      ],
      "name": "createContent",
      "outputs": [],
      "payable": false,
      "stateMutability": "nonpayable",
      "type": "function"
    },
    {
      "constant": false,
      "inputs": [
        {
          "internalType": "uint256",
          "name": "_contentId",
          "type": "uint256"
        },
        {
          "internalType": "string[]",
          "name": "_holderName",
          "type": "string[]"
        },
        {
          "internalType": "address[]",
          "name": "_holderAddress",
          "type": "address[]"
        },
        {
          "internalType": "uint256[]",
          "name": "_holderPortion",
          "type": "uint256[]"
        }
      ],
      "name": "addHolders",
      "outputs": [],
      "payable": false,
      "stateMutability": "nonpayable",
      "type": "function"
    },
    {
      "constant": false,
      "inputs": [
        {
          "internalType": "uint256",
          "name": "_contentId",
          "type": "uint256"
        }
      ],
      "name": "deleteHolders",
      "outputs": [],
      "payable": false,
      "stateMutability": "nonpayable",
      "type": "function"
    },
    {
      "constant": true,
      "inputs": [
        {
          "internalType": "uint256",
          "name": "_contentId",
          "type": "uint256"
        },
        {
          "internalType": "uint256",
          "name": "_num",
          "type": "uint256"
        }
      ],
      "name": "getHolderInfo",
      "outputs": [
        {
          "internalType": "string",
          "name": "holderName",
          "type": "string"
        },
        {
          "internalType": "address",
          "name": "holderAddress",
          "type": "address"
        },
        {
          "internalType": "uint256",
          "name": "holderPortion",
          "type": "uint256"
        }
      ],
      "payable": false,
      "stateMutability": "view",
      "type": "function"
    },
    {
      "constant": true,
      "inputs": [
        {
          "internalType": "uint256",
          "name": "_contentId",
          "type": "uint256"
        }
      ],
      "name": "getHolderNum",
      "outputs": [
        {
          "internalType": "uint256",
          "name": "holderNum",
          "type": "uint256"
        }
      ],
      "payable": false,
      "stateMutability": "view",
      "type": "function"
    },
    {
      "constant": true,
      "inputs": [
        {
          "internalType": "uint256",
          "name": "_contentId",
          "type": "uint256"
        }
      ],
      "name": "getContentInfo",
      "outputs": [
        {
          "internalType": "string",
          "name": "name",
          "type": "string"
        },
        {
          "internalType": "uint256",
          "name": "contentId",
          "type": "uint256"
        },
        {
          "internalType": "bool",
          "name": "active",
          "type": "bool"
        }
      ],
      "payable": false,
      "stateMutability": "view",
      "type": "function"
    },
    {
      "constant": false,
      "inputs": [
        {
          "internalType": "uint256",
          "name": "_contentId",
          "type": "uint256"
        }
      ],
      "name": "activateContent",
      "outputs": [],
      "payable": false,
      "stateMutability": "nonpayable",
      "type": "function"
    },
    {
      "constant": false,
      "inputs": [
        {
          "internalType": "uint256",
          "name": "_contentId",
          "type": "uint256"
        }
      ],
      "name": "disableContent",
      "outputs": [],
      "payable": false,
      "stateMutability": "nonpayable",
      "type": "function"
    }
  ],
  "bytecode": "0x60806040526001600255600060035534801561001a57600080fd5b50610fbd8061002a6000396000f3fe608060405234801561001057600080fd5b50600436106100885760003560e01c80637509c3301161005b5780637509c330146100f157806379102d5714610113578063c6b9cdae14610135578063d6bfdb2a1461014857610088565b8063110a144f1461008d5780632e310f1e146100a257806344211fe5146100cb578063497cc841146100de575b600080fd5b6100a061009b366004610b39565b61015b565b005b6100b56100b0366004610b39565b610194565b6040516100c29190610ee0565b60405180910390f35b6100a06100d9366004610b57565b61023d565b6100a06100ec366004610af7565b610432565b6101046100ff366004610b39565b610532565b6040516100c293929190610e43565b610126610121366004610c0e565b610611565b6040516100c293929190610e16565b6100a0610143366004610b39565b6107c4565b6100a0610156366004610b39565b610804565b60008181526001602052604090206002015460ff1661017957600080fd5b6000908152600160205260409020600201805460ff19169055565b6000818152602081905260408120600201546101cb5760405162461bcd60e51b81526004016101c290610eb0565b60405180910390fd5b6000828152602081905260409020600201546101f95760405162461bcd60e51b81526004016101c290610e80565b6000828152602081905260409020600101546102275760405162461bcd60e51b81526004016101c290610ea0565b5060009081526020819052604090206002015490565b82811461025c5760405162461bcd60e51b81526004016101c290610ec0565b6000805b828110156102975761028d8285858481811061027857fe5b9050602002013561089190919063ffffffff16565b9150600101610260565b5080600a146102b85760405162461bcd60e51b81526004016101c290610ed0565b60005b848110156104275760608888838181106102d157fe5b602002820190508035601e19368490030181126102ed57600080fd5b9091016020810191503567ffffffffffffffff81111561030c57600080fd5b3681900382131561031c57600080fd5b8080601f01602080910402602001604051908101604052809392919081815260200183838082843760009201829052509394508a925089915085905081811061036157fe5b90506020020160206103769190810190610ad1565b9050600086868581811061038657fe5b60008f8152602081815260408220600190810180549182018082559084529282902089519483029690960135965091946103c8945090910191908701906108bf565b505060008c8152602081815260408220600281018054600180820183559185528385200180546001600160a01b0319166001600160a01b03979097169690961790955560030180548086018255908352912001559190910190506102bb565b505050505050505050565b61043a61093d565b604051806060016040528084848080601f0160208091040260200160405190810160405280939291908181526020018383808284376000920182905250938552505060035460208085018290526040948501849052908352600181529290912083518051949550859491936104b4935084929101906108bf565b50602082015160018201556040918201516002909101805460ff191691151591909117905560035490517f512882de450b93ef9e78c553b2776dba213e405ae58f9920294d899d55ce631f9061050d9086908690610e04565b60405180910390a260025460035461052a9163ffffffff61089116565b600355505050565b606060008060035484106105585760405162461bcd60e51b81526004016101c290610e90565b60008481526001602081815260409283902080830154600280830154835487516101009782161597909702600019011691909104601f81018590048502860185019096528585529194909360ff909216928591908301828280156105fd5780601f106105d2576101008083540402835291602001916105fd565b820191906000526020600020905b8154815290600101906020018083116105e057829003601f168201915b505050505092509250925092509193909250565b6000828152602081905260408120600201546060919081906106455760405162461bcd60e51b81526004016101c290610eb0565b6000858152602081905260409020600301546106735760405162461bcd60e51b81526004016101c290610e80565b6000858152602081905260409020600101546106a15760405162461bcd60e51b81526004016101c290610ea0565b60008581526020819052604090206001018054859081106106be57fe5b9060005260206000200160008087815260200190815260200160002060020185815481106106e857fe5b600091825260208083209091015488835290829052604090912060030180546001600160a01b03909216918790811061071d57fe5b60009182526020918290200154835460408051601f6002600019610100600187161502019094169390930492830185900485028101850190915281815291928591908301828280156107b05780601f10610785576101008083540402835291602001916107b0565b820191906000526020600020905b81548152906001019060200180831161079357829003601f168201915b505050505092509250925092509250925092565b60008181526001602052604090206002015460ff16156107e357600080fd5b6000908152600160208190526040909120600201805460ff19169091179055565b600081815260208190526040902060038101546002909101541461083a5760405162461bcd60e51b81526004016101c290610ec0565b60008181526020819052604081206108559060010182610960565b5060008181526020819052604081206108719060020182610989565b50600081815260208190526040812061088d9060030182610989565b5050565b6000828201838110156108b65760405162461bcd60e51b81526004016101c290610e70565b90505b92915050565b828054600181600116156101000203166002900490600052602060002090601f016020900481019282601f1061090057805160ff191683800117855561092d565b8280016001018555821561092d579182015b8281111561092d578251825591602001919060010190610912565b506109399291506109a9565b5090565b604051806060016040528060608152602001600081526020016000151581525090565b815481835581811115610984576000838152602090206109849181019083016109c6565b505050565b815481835581811115610984576000838152602090206109849181019083015b6109c391905b8082111561093957600081556001016109af565b90565b6109c391905b808211156109395760006109e082826109e9565b506001016109cc565b50805460018160011615610100020316600290046000825580601f10610a0f5750610a2d565b601f016020900490600052602060002090810190610a2d91906109a9565b50565b80356108b981610f5d565b60008083601f840112610a4d57600080fd5b50813567ffffffffffffffff811115610a6557600080fd5b602083019150836020820283011115610a7d57600080fd5b9250929050565b60008083601f840112610a9657600080fd5b50813567ffffffffffffffff811115610aae57600080fd5b602083019150836001820283011115610a7d57600080fd5b80356108b981610f71565b600060208284031215610ae357600080fd5b6000610aef8484610a30565b949350505050565b60008060208385031215610b0a57600080fd5b823567ffffffffffffffff811115610b2157600080fd5b610b2d85828601610a84565b92509250509250929050565b600060208284031215610b4b57600080fd5b6000610aef8484610ac6565b60008060008060008060006080888a031215610b7257600080fd5b6000610b7e8a8a610ac6565b975050602088013567ffffffffffffffff811115610b9b57600080fd5b610ba78a828b01610a3b565b9650965050604088013567ffffffffffffffff811115610bc657600080fd5b610bd28a828b01610a3b565b9450945050606088013567ffffffffffffffff811115610bf157600080fd5b610bfd8a828b01610a3b565b925092505092959891949750929550565b60008060408385031215610c2157600080fd5b6000610c2d8585610ac6565b9250506020610c3e85828601610ac6565b9150509250929050565b610c5181610efb565b82525050565b610c5181610f06565b6000610c6c8385610ef2565b9350610c79838584610f17565b610c8283610f53565b9093019392505050565b6000610c9782610eee565b610ca18185610ef2565b9350610cb1818560208601610f23565b610c8281610f53565b6000610cc7601b83610ef2565b7f536166654d6174683a206164646974696f6e206f766572666c6f770000000000815260200192915050565b6000610d00600a83610ef2565b693737903837b93a34b7b760b11b815260200192915050565b6000610d26601483610ef2565b7318dbdb9d195b9d081a5cc81b9bdd08195e1a5cdd60621b815260200192915050565b6000610d56600783610ef2565b666e6f206e616d6560c81b815260200192915050565b6000610d79600983610ef2565b683737903437b63232b960b91b815260200192915050565b6000610d9e602083610ef2565b7f686f6c64657220616e6420706f7274696f6e20617265206e6f74206d61746368815260200192915050565b6000610dd7601583610ef2565b740706f7274696f6e2073756d206973206e6f7420313605c1b815260200192915050565b610c51816109c3565b60208082528101610aef818486610c60565b60608082528101610e278186610c8c565b9050610e366020830185610c48565b610aef6040830184610dfb565b60608082528101610e548186610c8c565b9050610e636020830185610dfb565b610aef6040830184610c57565b602080825281016108b981610cba565b602080825281016108b981610cf3565b602080825281016108b981610d19565b602080825281016108b981610d49565b602080825281016108b981610d6c565b602080825281016108b981610d91565b602080825281016108b981610dca565b602081016108b98284610dfb565b5190565b90815260200190565b60006108b982610f0b565b151590565b6001600160a01b031690565b82818337506000910152565b60005b83811015610f3e578181015183820152602001610f26565b83811115610f4d576000848401525b50505050565b601f01601f191690565b610f6681610efb565b8114610a2d57600080fd5b610f66816109c356fea365627a7a72315820a6cf7e1dfda00faf28fc4e45b1c6b95ef8755cbfa594a461a102fd06cf6831676c6578706572696d656e74616cf564736f6c63430005110040",
  "source": "pragma solidity ^0.5.17;\npragma experimental ABIEncoderV2;\n\n\n\nimport \"./interface/IContents.sol\";\nimport \"./library/SafeMath.sol\";\n\n\ncontract Contents is IContents {\n\n    mapping (uint256 => shareHolders) internal _shareInfo;\n\n    mapping (uint256 => Contents) internal _contentList;\n\n    event ContentsCreation (string name, uint indexed contentId );\n\n    using SafeMath for uint256;\n\n    uint256 one = 1;\n\n    uint256 counterContent = 0;\n\n    struct Contents {\n        string name;\n        uint256 contentId;\n        bool active;\n    }\n\n    struct shareHolders {\n        uint256 contentId;\n        string[] holderName;\n        address[] holderAddress;\n        uint256[] holderPortion;\n    }\n\n    function createContent(string calldata _name) external {\n        Contents memory Content = Contents({\n            name : _name,\n            contentId : counterContent,\n            active : false\n        });\n        _contentList[counterContent] = Content;\n        emit ContentsCreation(_name, counterContent);\n        counterContent = counterContent.add(one);\n    }\n\n    function addHolders(uint256 _contentId, string[] calldata _holderName, address[] calldata _holderAddress, uint256[] calldata _holderPortion) external {\n        require(_holderAddress.length == _holderPortion.length, 'holder and portion are not match');\n        uint256 counter = 0;\n        for(uint i = 0 ; i < _holderPortion.length ; i++) counter = _holderPortion[i].add(counter);\n        require(counter == 10 , 'portion sum is not 10');\n        for(uint i = 0 ; i < _holderAddress.length; i++){\n            string memory holderName = _holderName[i];\n            address holderAddress = _holderAddress[i];\n            uint256 holderPortion = _holderPortion[i];\n            _shareInfo[_contentId].holderName.push(holderName);\n            _shareInfo[_contentId].holderAddress.push(holderAddress);\n            _shareInfo[_contentId].holderPortion.push(holderPortion);\n        }\n    }\n\n\n    function deleteHolders(uint256 _contentId) external {\n        require(_shareInfo[_contentId].holderAddress.length == _shareInfo[_contentId].holderPortion.length, 'holder and portion are not match');\n        _shareInfo[_contentId].holderName.length = 0;\n        _shareInfo[_contentId].holderAddress.length = 0;\n        _shareInfo[_contentId].holderPortion.length = 0;\n    }\n\n\n    function getHolderInfo(uint256 _contentId, uint256 _num) external view returns(string memory holderName, address holderAddress, uint256 holderPortion){\n        require(_shareInfo[_contentId].holderAddress.length != 0, 'no holder');\n        require(_shareInfo[_contentId].holderPortion.length != 0, 'no portion');\n        require(_shareInfo[_contentId].holderName.length != 0, 'no name');\n\n        return(\n            _shareInfo[_contentId].holderName[_num],\n            _shareInfo[_contentId].holderAddress[_num],\n            _shareInfo[_contentId].holderPortion[_num]\n        );\n    }\n\n\n    function getHolderNum(uint256 _contentId) external view returns( uint256 holderNum ){\n        require(_shareInfo[_contentId].holderAddress.length != 0, 'no holder');\n        require(_shareInfo[_contentId].holderAddress.length != 0, 'no portion');\n        require(_shareInfo[_contentId].holderName.length != 0, 'no name');\n        return(\n            _shareInfo[_contentId].holderAddress.length\n        );\n    }\n\n\n    function getContentInfo(uint256 _contentId) external view returns(string memory name, uint256 contentId, bool active){\n        require(_contentId < counterContent, 'content is not exist');\n        return(\n            _contentList[_contentId].name,\n            _contentList[_contentId].contentId,\n            _contentList[_contentId].active\n        );\n    }\n\n    function activateContent(uint256 _contentId) external {\n        require(_contentList[_contentId].active);\n        _contentList[_contentId].active = false;\n    }\n\n    function disableContent(uint256 _contentId) external {\n        require(!_contentList[_contentId].active);\n        _contentList[_contentId].active = true;\n    }\n}\n",
  "sourcePath": "/Users/WOOK/Development/haechilabs/Staby/contracts/Contents.sol",
  "compiler": {
    "name": "solc",
    "version": "0.5.17+commit.d19bba13.Emscripten.clang"
  },
  "schemaVersion": "3.3.1",
  "updatedAt": "2020-11-09T16:40:54.092Z",
  "devdoc": {
    "methods": {}
  },
  "userdoc": {
    "methods": {}
  }
}