{
  "contractName": "Contents",
  "abi": [
    {
      "anonymous": false,
      "inputs": [
        {
          "indexed": true,
          "internalType": "uint256",
          "name": "contentId",
          "type": "uint256"
        }
      ],
      "name": "ContentActivation",
      "type": "event"
    },
    {
      "anonymous": false,
      "inputs": [
        {
          "indexed": true,
          "internalType": "uint256",
          "name": "contentId",
          "type": "uint256"
        }
      ],
      "name": "ContentDisabled",
      "type": "event"
    },
    {
      "anonymous": false,
      "inputs": [
        {
          "indexed": false,
          "internalType": "string",
          "name": "name",
          "type": "string"
        },
        {
          "indexed": true,
          "internalType": "uint256",
          "name": "contentId",
          "type": "uint256"
        }
      ],
      "name": "ContentsCreation",
      "type": "event"
    },
    {
      "anonymous": false,
      "inputs": [
        {
          "indexed": true,
          "internalType": "address",
          "name": "currentOwner",
          "type": "address"
        },
        {
          "indexed": true,
          "internalType": "address",
          "name": "newOwner",
          "type": "address"
        }
      ],
      "name": "OwnershipTransferred",
      "type": "event"
    },
    {
      "anonymous": false,
      "inputs": [
        {
          "indexed": true,
          "internalType": "uint256",
          "name": "contentId",
          "type": "uint256"
        },
        {
          "indexed": false,
          "internalType": "bytes32[]",
          "name": "nickName",
          "type": "bytes32[]"
        },
        {
          "indexed": false,
          "internalType": "address[]",
          "name": "holderAddress",
          "type": "address[]"
        },
        {
          "indexed": false,
          "internalType": "uint256[]",
          "name": "holderPortion",
          "type": "uint256[]"
        }
      ],
      "name": "addShareInfo",
      "type": "event"
    },
    {
      "anonymous": false,
      "inputs": [
        {
          "indexed": true,
          "internalType": "uint256",
          "name": "contentId",
          "type": "uint256"
        }
      ],
      "name": "deleteShareInfo",
      "type": "event"
    },
    {
      "constant": true,
      "inputs": [],
      "name": "owner",
      "outputs": [
        {
          "internalType": "address",
          "name": "ownerAddress",
          "type": "address"
        }
      ],
      "payable": false,
      "stateMutability": "view",
      "type": "function"
    },
    {
      "constant": false,
      "inputs": [],
      "name": "renounceOwnership",
      "outputs": [
        {
          "internalType": "bool",
          "name": "success",
          "type": "bool"
        }
      ],
      "payable": false,
      "stateMutability": "nonpayable",
      "type": "function"
    },
    {
      "constant": false,
      "inputs": [
        {
          "internalType": "address",
          "name": "newOwner",
          "type": "address"
        }
      ],
      "name": "transferOwnership",
      "outputs": [
        {
          "internalType": "bool",
          "name": "success",
          "type": "bool"
        }
      ],
      "payable": false,
      "stateMutability": "nonpayable",
      "type": "function"
    },
    {
      "constant": true,
      "inputs": [],
      "name": "denominator",
      "outputs": [
        {
          "internalType": "uint256",
          "name": "",
          "type": "uint256"
        }
      ],
      "payable": false,
      "stateMutability": "view",
      "type": "function"
    },
    {
      "constant": true,
      "inputs": [],
      "name": "contentCounter",
      "outputs": [
        {
          "internalType": "uint256",
          "name": "",
          "type": "uint256"
        }
      ],
      "payable": false,
      "stateMutability": "view",
      "type": "function"
    },
    {
      "constant": false,
      "inputs": [
        {
          "internalType": "string",
          "name": "_name",
          "type": "string"
        }
      ],
      "name": "createContent",
      "outputs": [],
      "payable": false,
      "stateMutability": "nonpayable",
      "type": "function"
    },
    {
      "constant": false,
      "inputs": [
        {
          "internalType": "uint256",
          "name": "_contentId",
          "type": "uint256"
        },
        {
          "internalType": "bytes32[]",
          "name": "_holderName",
          "type": "bytes32[]"
        },
        {
          "internalType": "address[]",
          "name": "_holderAddress",
          "type": "address[]"
        },
        {
          "internalType": "uint256[]",
          "name": "_holderPortion",
          "type": "uint256[]"
        }
      ],
      "name": "addHolders",
      "outputs": [],
      "payable": false,
      "stateMutability": "nonpayable",
      "type": "function"
    },
    {
      "constant": false,
      "inputs": [
        {
          "internalType": "uint256",
          "name": "_contentId",
          "type": "uint256"
        }
      ],
      "name": "deleteHolders",
      "outputs": [],
      "payable": false,
      "stateMutability": "nonpayable",
      "type": "function"
    },
    {
      "constant": true,
      "inputs": [
        {
          "internalType": "uint256",
          "name": "_contentId",
          "type": "uint256"
        },
        {
          "internalType": "uint256",
          "name": "_num",
          "type": "uint256"
        }
      ],
      "name": "getHolderInfo",
      "outputs": [
        {
          "internalType": "bytes32",
          "name": "holderName",
          "type": "bytes32"
        },
        {
          "internalType": "address",
          "name": "holderAddress",
          "type": "address"
        },
        {
          "internalType": "uint256",
          "name": "holderPortion",
          "type": "uint256"
        }
      ],
      "payable": false,
      "stateMutability": "view",
      "type": "function"
    },
    {
      "constant": true,
      "inputs": [
        {
          "internalType": "uint256",
          "name": "_contentId",
          "type": "uint256"
        }
      ],
      "name": "getHolderNum",
      "outputs": [
        {
          "internalType": "uint256",
          "name": "holderNum",
          "type": "uint256"
        }
      ],
      "payable": false,
      "stateMutability": "view",
      "type": "function"
    },
    {
      "constant": true,
      "inputs": [
        {
          "internalType": "uint256",
          "name": "_contentId",
          "type": "uint256"
        }
      ],
      "name": "getContentInfo",
      "outputs": [
        {
          "internalType": "string",
          "name": "name",
          "type": "string"
        },
        {
          "internalType": "uint256",
          "name": "contentId",
          "type": "uint256"
        },
        {
          "internalType": "bool",
          "name": "active",
          "type": "bool"
        }
      ],
      "payable": false,
      "stateMutability": "view",
      "type": "function"
    },
    {
      "constant": false,
      "inputs": [
        {
          "internalType": "uint256",
          "name": "_contentId",
          "type": "uint256"
        }
      ],
      "name": "activateContent",
      "outputs": [],
      "payable": false,
      "stateMutability": "nonpayable",
      "type": "function"
    },
    {
      "constant": false,
      "inputs": [
        {
          "internalType": "uint256",
          "name": "_contentId",
          "type": "uint256"
        }
      ],
      "name": "disableContent",
      "outputs": [],
      "payable": false,
      "stateMutability": "nonpayable",
      "type": "function"
    }
  ],
  "bytecode": "0x608060408190526000600381905580546001600160a01b031916339081178255917f8be0079c531659141344cd1fd0a4f28419497f9722a3daafe3b4186f6b6457e0908290a3611225806100546000396000f3fe608060405234801561001057600080fd5b50600436106100cf5760003560e01c80638da5cb5b1161008c578063c6b9cdae11610066578063c6b9cdae146103dd578063d6bfdb2a146103fa578063e6a9aba314610417578063f2fde38b1461041f576100cf565b80638da5cb5b1461029c57806396ce0795146102c0578063a5202e67146102c8576100cf565b8063110a144f146100d45780632e310f1e146100f3578063497cc84114610122578063715018a6146101905780637509c330146101ac57806379102d5714610253575b600080fd5b6100f1600480360360208110156100ea57600080fd5b5035610445565b005b6101106004803603602081101561010957600080fd5b50356104a9565b60408051918252519081900360200190f35b6100f16004803603602081101561013857600080fd5b810190602081018135600160201b81111561015257600080fd5b82018360208201111561016457600080fd5b803590602001918460018302840111600160201b8311171561018557600080fd5b5090925090506105ac565b610198610638565b604080519115158252519081900360200190f35b6101c9600480360360208110156101c257600080fd5b5035610691565b604051808060200184815260200183151515158152602001828103825285818151815260200191508051906020019080838360005b838110156102165781810151838201526020016101fe565b50505050905090810190601f1680156102435780820380516001836020036101000a031916815260200191505b5094505050505060405180910390f35b6102766004803603604081101561026957600080fd5b508035906020013561079b565b604080519384526001600160a01b03909216602084015282820152519081900360600190f35b6102a4610924565b604080516001600160a01b039092168252519081900360200190f35b610110610933565b6100f1600480360360808110156102de57600080fd5b81359190810190604081016020820135600160201b8111156102ff57600080fd5b82018360208201111561031157600080fd5b803590602001918460208302840111600160201b8311171561033257600080fd5b919390929091602081019035600160201b81111561034f57600080fd5b82018360208201111561036157600080fd5b803590602001918460208302840111600160201b8311171561038257600080fd5b919390929091602081019035600160201b81111561039f57600080fd5b8201836020820111156103b157600080fd5b803590602001918460208302840111600160201b831117156103d257600080fd5b509092509050610939565b6100f1600480360360208110156103f357600080fd5b50356109e1565b6100f16004803603602081101561041057600080fd5b5035610a49565b610110610a55565b6101986004803603602081101561043557600080fd5b50356001600160a01b0316610a5b565b6000818152600260208190526040909120015460ff1661046457600080fd5b6000818152600260208190526040808320909101805460ff191690555182917fbf6a6fb4ce843a3103874f63696a7008f788f7e74b5885c1a489110363db4d4b91a250565b6000818152600160205260408120600201546104f8576040805162461bcd60e51b81526020600482015260096024820152683737903437b63232b960b91b604482015290519081900360640190fd5b600082815260016020526040902060020154610548576040805162461bcd60e51b815260206004820152600a6024820152693737903837b93a34b7b760b11b604482015290519081900360640190fd5b60008281526001602081905260409091200154610596576040805162461bcd60e51b81526020600482015260076024820152666e6f206e616d6560c81b604482015290519081900360640190fd5b5060009081526001602052604090206002015490565b6000546001600160a01b031633146105f55760405162461bcd60e51b815260040180806020018281038252602f81526020018061117d602f913960400191505060405180910390fd5b61063482828080601f016020809104026020016040519081016040528093929190818152602001838380828437600092019190915250610af992505050565b5050565b600080546001600160a01b031633146106825760405162461bcd60e51b815260040180806020018281038252602f81526020018061117d602f913960400191505060405180910390fd5b61068c6000610c19565b905090565b606060008060035484106106e3576040805162461bcd60e51b815260206004820152601460248201527318dbdb9d195b9d081a5cc81b9bdd08195e1a5cdd60621b604482015290519081900360640190fd5b60008481526002602081815260409283902060018082015482850154835487516101009482161594909402600019011695909504601f81018590048502830185019096528582529194919360ff1692909185918301828280156107875780601f1061075c57610100808354040283529160200191610787565b820191906000526020600020905b81548152906001019060200180831161076a57829003601f168201915b505050505092509250925092509193909250565b600082815260016020526040812060020154819081906107ee576040805162461bcd60e51b81526020600482015260096024820152683737903437b63232b960b91b604482015290519081900360640190fd5b60008581526001602052604090206003015461083e576040805162461bcd60e51b815260206004820152600a6024820152693737903837b93a34b7b760b11b604482015290519081900360640190fd5b6000858152600160208190526040909120015461088c576040805162461bcd60e51b81526020600482015260076024820152666e6f206e616d6560c81b604482015290519081900360640190fd5b6000858152600160208190526040909120018054859081106108aa57fe5b90600052602060002001546001600087815260200190815260200160002060020185815481106108d657fe5b60009182526020808320909101548883526001909152604090912060030180546001600160a01b03909216918790811061090c57fe5b90600052602060002001549250925092509250925092565b6000546001600160a01b031690565b600a5b90565b6109d88787878080602002602001604051908101604052809392919081815260200183836020028082843760009201919091525050604080516020808b0282810182019093528a82529093508a92508991829185019084908082843760009201919091525050604080516020808a02828101820190935289825290935089925088918291850190849080828437600092019190915250610c7992505050565b50505050505050565b6000818152600260208190526040909120015460ff1615610a0157600080fd5b6000818152600260208190526040808320909101805460ff191660011790555182917f0945459ccc5aecff19509681cca776f90b90235bc5cf16ea9d1413e9be14b06591a250565b610a5281610f23565b50565b60035490565b600080546001600160a01b03163314610aa55760405162461bcd60e51b815260040180806020018281038252602f81526020018061117d602f913960400191505060405180910390fd5b6001600160a01b038216610aea5760405162461bcd60e51b81526004018080602001828103825260458152602001806111ac6045913960600191505060405180910390fd5b610af382610c19565b92915050565b610b01611071565b506040805160608101825282815260035460208083018290526000838501819052918252600281529290208151805192938493610b419284920190611094565b5060208281015160018301556040928301516002909201805460ff1916921515929092179091556003548251828152855181840152855191937f512882de450b93ef9e78c553b2776dba213e405ae58f9920294d899d55ce631f938793839283019185019080838360005b83811015610bc4578181015183820152602001610bac565b50505050905090810190601f168015610bf15780820380516001836020036101000a031916815260200191505b509250505060405180910390a2600354610c1290600163ffffffff61101016565b6003555050565b600080546040516001600160a01b038085169216907f8be0079c531659141344cd1fd0a4f28419497f9722a3daafe3b4186f6b6457e0908490a350600080546001600160a01b0319166001600160a01b0392909216919091179055600190565b8051825114610ccf576040805162461bcd60e51b815260206004820181905260248201527f686f6c64657220616e6420706f7274696f6e20617265206e6f74206d61746368604482015290519081900360640190fd5b6000805b8251811015610d0c57610d0282848381518110610cec57fe5b602002602001015161101090919063ffffffff16565b9150600101610cd3565b50600a8114610d4c5760405162461bcd60e51b81526004018080602001828103825260278152602001806111566027913960400191505060405180910390fd5b60005b8351811015610e19576000858281518110610d6657fe5b602002602001015190506000858381518110610d7e57fe5b602002602001015190506000858481518110610d9657fe5b60209081029190910181015160008b815260018084526040822080820180548084018255908452858420019790975560028701805480830182559083528483200180546001600160a01b0319166001600160a01b039790971696909617909555600390950180548086018255908652919094200192909255919091019050610d4f565b50847fdfc653e4fc461f17e9b6f85aa480e768beae19584c7f329fb06603fc81a3210385858560405180806020018060200180602001848103845287818151815260200191508051906020019060200280838360005b83811015610e87578181015183820152602001610e6f565b50505050905001848103835286818151815260200191508051906020019060200280838360005b83811015610ec6578181015183820152602001610eae565b50505050905001848103825285818151815260200191508051906020019060200280838360005b83811015610f05578181015183820152602001610eed565b50505050905001965050505050505060405180910390a25050505050565b6000818152600160205260409020600381015460029091015414610f8e576040805162461bcd60e51b815260206004820181905260248201527f686f6c64657220616e6420706f7274696f6e20617265206e6f74206d61746368604482015290519081900360640190fd5b60008181526001602081905260408220610fa9910182611112565b506000818152600160205260408120610fc59060020182611112565b506000818152600160205260408120610fe19060030182611112565b5060405181907fb0b9543950a7fb1f3258b2fbc72b2b4924eb658108967d0d1d45c44c4a737abb90600090a250565b60008282018381101561106a576040805162461bcd60e51b815260206004820152601b60248201527f536166654d6174683a206164646974696f6e206f766572666c6f770000000000604482015290519081900360640190fd5b9392505050565b604051806060016040528060608152602001600081526020016000151581525090565b828054600181600116156101000203166002900490600052602060002090601f016020900481019282601f106110d557805160ff1916838001178555611102565b82800160010185558215611102579182015b828111156111025782518255916020019190600101906110e7565b5061110e92915061113b565b5090565b8154818355818111156111365760008381526020902061113691810190830161113b565b505050565b61093691905b8082111561110e576000815560010161114156fe706f7274696f6e2073756d206973206e6f7420657175616c20746f2064656e6f6d696e61746f724f776e61626c65203a2046756e6374696f6e2063616c6c656420627920756e617574686f72697a656420757365722e4f776e61626c652f7472616e736665724f776e657273686970203a2063616e6e6f74207472616e73666572206f776e65727368697020746f207a65726f2061646472657373a265627a7a72315820c49fcac824995dafae7c5c12c26b07833d9ef395284e2d35f28c8a44e2b4fbc264736f6c63430005110032",
  "source": "pragma solidity ^0.5.17;\n\nimport \"./interface/IContents.sol\";\nimport \"./library/SafeMath.sol\";\nimport \"./library/Ownable.sol\";\n\n// TODO Convention !!!!\n// TODO Ownable !\ncontract Contents is IContents, Ownable {\n\n    mapping (uint256 => ShareHolders) internal _shareInfo;\n    mapping (uint256 => Contents) internal _contentList;\n\n    event ContentsCreation (string name, uint256 indexed contentId );\n    event addShareInfo (uint256 indexed contentId, bytes32[] nickName, address[] holderAddress, uint256[] holderPortion );\n    event deleteShareInfo ( uint256 indexed contentId );\n    event ContentActivation ( uint256 indexed contentId );\n    event ContentDisabled ( uint256 indexed contentId );\n\n    using SafeMath for uint256;\n\n    uint256 internal _contentCounter = 0;\n    uint256 constant private DENOMINATOR = 10;\n\n    struct Contents {\n        string name;\n        uint256 contentId;\n        bool active;\n    }\n\n    struct ShareHolders {\n        uint256 contentId;\n        bytes32[] holderName;\n        address[] holderAddress;\n        uint256[] holderPortion;\n    }\n\n    function denominator() external view returns(uint256) {\n        return DENOMINATOR;\n    }\n\n    function contentCounter() external view returns(uint256){\n      return _contentCounter;\n    }\n\n    // onlyOwner\n    function createContent(string calldata _name) external onlyOwner {\n        _createContent(_name);\n    }\n\n    // onlyOwner\n    function addHolders(uint256 _contentId, bytes32[] calldata _holderName, address[] calldata _holderAddress, uint256[] calldata _holderPortion) external {\n        _addHolders(_contentId, _holderName, _holderAddress, _holderPortion);\n    }\n\n    // onlyOwner\n    function deleteHolders(uint256 _contentId) external {\n        _deleteHolders(_contentId);\n    }\n\n    function getHolderInfo(uint256 _contentId, uint256 _num) external view returns(bytes32 holderName, address holderAddress, uint256 holderPortion){\n        require(_shareInfo[_contentId].holderAddress.length != 0, 'no holder');\n        require(_shareInfo[_contentId].holderPortion.length != 0, 'no portion');\n        require(_shareInfo[_contentId].holderName.length != 0, 'no name');\n        return(\n            _shareInfo[_contentId].holderName[_num],\n            _shareInfo[_contentId].holderAddress[_num],\n            _shareInfo[_contentId].holderPortion[_num]\n        );\n    }\n\n    function getHolderNum(uint256 _contentId) external view returns( uint256 holderNum ){\n        require(_shareInfo[_contentId].holderAddress.length != 0, 'no holder');\n        require(_shareInfo[_contentId].holderAddress.length != 0, 'no portion');\n        require(_shareInfo[_contentId].holderName.length != 0, 'no name');\n        return(\n            _shareInfo[_contentId].holderAddress.length\n        );\n    }\n\n    function getContentInfo(uint256 _contentId) external view returns(string memory name, uint256 contentId, bool active){\n        require(_contentId < _contentCounter, 'content is not exist');\n        return(\n            _contentList[_contentId].name,\n            _contentList[_contentId].contentId,\n            _contentList[_contentId].active\n        );\n    }\n\n    // onlyOwner\n    function activateContent(uint256 _contentId) external {\n        require(_contentList[_contentId].active);\n        _contentList[_contentId].active = false;\n        emit ContentActivation(_contentId);\n    }\n\n    // onlyOwner\n    function disableContent(uint256 _contentId) external {\n        require(!_contentList[_contentId].active);\n        _contentList[_contentId].active = true;\n        emit ContentDisabled(_contentId);\n    }\n\n    function _createContent(string memory _name) internal {\n        Contents memory Content = Contents({\n            name : _name,\n            contentId : _contentCounter,\n            active : false\n        });\n        _contentList[_contentCounter] = Content;\n        emit ContentsCreation(_name, _contentCounter);\n        _contentCounter = _contentCounter.add(1);\n    }\n\n    function _addHolders(uint256 _contentId, bytes32[] memory _holderName, address[] memory _holderAddress, uint256[] memory _holderPortion) internal {\n        require(_holderAddress.length == _holderPortion.length, 'holder and portion are not match');\n        uint256 counter = 0;\n        for(uint i = 0 ; i < _holderPortion.length ; i++) counter = _holderPortion[i].add(counter);\n        require(counter == DENOMINATOR , 'portion sum is not equal to denominator');\n        for(uint i = 0 ; i < _holderAddress.length; i++){\n            bytes32 holderName = _holderName[i];\n            address holderAddress = _holderAddress[i];\n            uint256 holderPortion = _holderPortion[i];\n            _shareInfo[_contentId].holderName.push(holderName);\n            _shareInfo[_contentId].holderAddress.push(holderAddress);\n            _shareInfo[_contentId].holderPortion.push(holderPortion);\n        }\n        emit addShareInfo(_contentId, _holderName, _holderAddress, _holderPortion);\n    }\n\n    function _deleteHolders(uint256 _contentId) internal {\n        require(_shareInfo[_contentId].holderAddress.length == _shareInfo[_contentId].holderPortion.length, 'holder and portion are not match');\n        _shareInfo[_contentId].holderName.length = 0;\n        _shareInfo[_contentId].holderAddress.length = 0;\n        _shareInfo[_contentId].holderPortion.length = 0;\n        emit deleteShareInfo(_contentId);\n    }\n}\n",
  "sourcePath": "/Users/leekt/haechi/staby/contracts/Contents.sol",
  "compiler": {
    "name": "solc",
    "version": "0.5.17+commit.d19bba13.Emscripten.clang"
  },
  "schemaVersion": "3.3.2",
  "updatedAt": "2020-11-11T07:12:15.552Z",
  "devdoc": {
    "methods": {}
  },
  "userdoc": {
    "methods": {}
  }
}