{
  "contractName": "Contents",
  "abi": [
    {
      "constant": false,
      "inputs": [
        {
          "name": "_name",
          "type": "string"
        },
        {
          "name": "_contentId",
          "type": "uint256"
        }
      ],
      "name": "createContent",
      "outputs": [],
      "payable": false,
      "stateMutability": "nonpayable",
      "type": "function"
    },
    {
      "constant": false,
      "inputs": [
        {
          "name": "_contentId",
          "type": "uint256"
        },
        {
          "name": "_Holder",
          "type": "address"
        },
        {
          "name": "_portion",
          "type": "uint256"
        }
      ],
      "name": "updateHolders",
      "outputs": [],
      "payable": false,
      "stateMutability": "nonpayable",
      "type": "function"
    },
    {
      "constant": false,
      "inputs": [
        {
          "name": "_contentId",
          "type": "uint256"
        }
      ],
      "name": "deleteHolders",
      "outputs": [],
      "payable": false,
      "stateMutability": "nonpayable",
      "type": "function"
    },
    {
      "constant": true,
      "inputs": [
        {
          "name": "contentId",
          "type": "uint256"
        },
        {
          "name": "_num",
          "type": "uint256"
        }
      ],
      "name": "getHolderInfo",
      "outputs": [
        {
          "name": "",
          "type": "uint256"
        },
        {
          "name": "",
          "type": "address"
        },
        {
          "name": "",
          "type": "uint256"
        }
      ],
      "payable": false,
      "stateMutability": "view",
      "type": "function"
    },
    {
      "constant": true,
      "inputs": [
        {
          "name": "contentId",
          "type": "uint256"
        }
      ],
      "name": "getContentInfo",
      "outputs": [
        {
          "name": "",
          "type": "string"
        },
        {
          "name": "",
          "type": "uint256"
        }
      ],
      "payable": false,
      "stateMutability": "view",
      "type": "function"
    }
  ],
  "bytecode": "0x608060405234801561001057600080fd5b50610717806100206000396000f3fe608060405234801561001057600080fd5b50600436106100575760003560e01c806327b697f01461005c5780633a1b3038146101215780637509c3301461017957806379102d5714610227578063d6bfdb2a146102ad575b600080fd5b61011f6004803603604081101561007257600080fd5b810190808035906020019064010000000081111561008f57600080fd5b8201836020820111156100a157600080fd5b803590602001918460018302840111640100000000831117156100c357600080fd5b91908080601f016020809104026020016040519081016040528093929190818152602001838380828437600081840152601f19601f820116905080830192505050505050509192919290803590602001909291905050506102db565b005b6101776004803603606081101561013757600080fd5b8101908080359060200190929190803573ffffffffffffffffffffffffffffffffffffffff1690602001909291908035906020019092919050505061033d565b005b6101a56004803603602081101561018f57600080fd5b8101908080359060200190929190505050610414565b6040518080602001838152602001828103825284818151815260200191508051906020019080838360005b838110156101eb5780820151818401526020810190506101d0565b50505050905090810190601f1680156102185780820380516001836020036101000a031916815260200191505b50935050505060405180910390f35b61025d6004803603604081101561023d57600080fd5b8101908080359060200190929190803590602001909291905050506104ea565b604051808481526020018373ffffffffffffffffffffffffffffffffffffffff1673ffffffffffffffffffffffffffffffffffffffff168152602001828152602001935050505060405180910390f35b6102d9600480360360208110156102c357600080fd5b8101908080359060200190929190505050610588565b005b6102e361062c565b60405180604001604052808481526020018381525090508060016000848152602001908152602001600020600082015181600001908051906020019061032a929190610646565b5060208201518160010155905050505050565b82600080858152602001908152602001600020600001819055506000808481526020019081526020016000206001018290806001815401808255809150509060018203906000526020600020016000909192909190916101000a81548173ffffffffffffffffffffffffffffffffffffffff021916908373ffffffffffffffffffffffffffffffffffffffff16021790555050600080848152602001908152602001600020600201819080600181540180825580915050906001820390600052602060002001600090919290919091505550505050565b60606000600160008481526020019081526020016000206000016001600085815260200190815260200160002060010154818054600181600116156101000203166002900480601f0160208091040260200160405190810160405280929190818152602001828054600181600116156101000203166002900480156104da5780601f106104af576101008083540402835291602001916104da565b820191906000526020600020905b8154815290600101906020018083116104bd57829003601f168201915b5050505050915091509150915091565b600080600080600086815260200190815260200160002060000154600080878152602001908152602001600020600101858154811061052557fe5b9060005260206000200160009054906101000a900473ffffffffffffffffffffffffffffffffffffffff16600080888152602001908152602001600020600201868154811061057057fe5b90600052602060002001549250925092509250925092565b80600080838152602001908152602001600020600001819055506000808281526020019081526020016000206001018054806105c057fe5b6001900381819060005260206000200160006101000a81549073ffffffffffffffffffffffffffffffffffffffff0219169055905560008082815260200190815260200160002060020180548061061357fe5b6001900381819060005260206000200160009055905550565b604051806040016040528060608152602001600081525090565b828054600181600116156101000203166002900490600052602060002090601f016020900481019282601f1061068757805160ff19168380011785556106b5565b828001600101855582156106b5579182015b828111156106b4578251825591602001919060010190610699565b5b5090506106c291906106c6565b5090565b6106e891905b808211156106e45760008160009055506001016106cc565b5090565b9056fea165627a7a723058207eddb242f350a1106b1e8aa05135c13ca173067790145806b2d5d79a033a19230029",
  "source": "pragma solidity ^0.5.0;\n\nimport \"./IContents.sol\";\n\ncontract Contents is IContents{\n\n    mapping (uint256 => shareHolders) internal _shareInfo;\n\n    mapping (uint256 => Contents) internal _contentList;\n\n    // Contents 구조체\n    struct Contents {\n        string name; // Content 이름\n        uint256 contentId; // Content ID\n    }\n\n    // 지분정보 구조체\n    struct shareHolders {\n        uint256 contentId;  // Content ID\n        address[] holderAddress;  // 지분 소유자 address\n        uint256[] holderPortion;  // 소유한 지분 %\n    }\n\n    function createContent(string memory _name, uint256 _contentId) public {\n        Contents memory Content = Contents({\n            name : _name,\n            contentId : _contentId\n        });\n        _contentList[_contentId] = Content;\n    }\n\n\n    function updateHolders(uint256 _contentId, address _Holder, uint _portion) external {\n        _shareInfo[_contentId].contentId = _contentId;\n        _shareInfo[_contentId].holderAddress.push(_Holder);\n        _shareInfo[_contentId].holderPortion.push(_portion);\n    }\n\n\n    function deleteHolders(uint256 _contentId) external {\n        _shareInfo[_contentId].contentId = _contentId;\n        _shareInfo[_contentId].holderAddress.pop();\n        _shareInfo[_contentId].holderPortion.pop();\n    }\n\n\n    function getHolderInfo(uint256 contentId, uint256 _num) external view returns(uint256, address, uint256){\n        return(\n        _shareInfo[contentId].contentId,\n        _shareInfo[contentId].holderAddress[_num],\n        _shareInfo[contentId].holderPortion[_num]\n        );\n    }\n\n\n    function getContentInfo(uint256 contentId) external view returns(string memory, uint256){\n        return(\n          _contentList[contentId].name,\n          _contentList[contentId].contentId\n          );\n    }\n\n\n}\n",
  "sourcePath": "/Users/WOOK/Development/haechilabs/Staby/contracts/Contents.sol",
  "compiler": {
    "name": "solc",
    "version": "0.5.8+commit.23d335f2.Emscripten.clang"
  },
  "schemaVersion": "3.0.10",
  "updatedAt": "2020-11-05T14:38:34.235Z",
  "devdoc": {
    "methods": {}
  },
  "userdoc": {
    "methods": {}
  }
}