{
  "contractName": "Contents",
  "abi": [
    {
      "anonymous": false,
      "inputs": [
        {
          "indexed": false,
          "internalType": "string",
          "name": "name",
          "type": "string"
        },
        {
          "indexed": true,
          "internalType": "uint256",
          "name": "contentId",
          "type": "uint256"
        }
      ],
      "name": "ContentsCreation",
      "type": "event"
    },
    {
      "constant": false,
      "inputs": [
        {
          "internalType": "string",
          "name": "_name",
          "type": "string"
        }
      ],
      "name": "createContent",
      "outputs": [],
      "payable": false,
      "stateMutability": "nonpayable",
      "type": "function"
    },
    {
      "constant": false,
      "inputs": [
        {
          "internalType": "uint256",
          "name": "_contentId",
          "type": "uint256"
        },
        {
          "internalType": "address[]",
          "name": "_Holder",
          "type": "address[]"
        },
        {
          "internalType": "uint256[]",
          "name": "_portion",
          "type": "uint256[]"
        }
      ],
      "name": "addHolders",
      "outputs": [],
      "payable": false,
      "stateMutability": "nonpayable",
      "type": "function"
    },
    {
      "constant": false,
      "inputs": [
        {
          "internalType": "uint256",
          "name": "_contentId",
          "type": "uint256"
        }
      ],
      "name": "deleteHolders",
      "outputs": [],
      "payable": false,
      "stateMutability": "nonpayable",
      "type": "function"
    },
    {
      "constant": true,
      "inputs": [
        {
          "internalType": "uint256",
          "name": "_contentId",
          "type": "uint256"
        },
        {
          "internalType": "uint256",
          "name": "_num",
          "type": "uint256"
        }
      ],
      "name": "getHolderInfo",
      "outputs": [
        {
          "internalType": "address",
          "name": "holder",
          "type": "address"
        },
        {
          "internalType": "uint256",
          "name": "portion",
          "type": "uint256"
        }
      ],
      "payable": false,
      "stateMutability": "view",
      "type": "function"
    },
    {
      "constant": true,
      "inputs": [
        {
          "internalType": "uint256",
          "name": "_contentId",
          "type": "uint256"
        }
      ],
      "name": "getHolderNum",
      "outputs": [
        {
          "internalType": "uint256",
          "name": "holderNum",
          "type": "uint256"
        }
      ],
      "payable": false,
      "stateMutability": "view",
      "type": "function"
    },
    {
      "constant": true,
      "inputs": [
        {
          "internalType": "uint256",
          "name": "_contentId",
          "type": "uint256"
        }
      ],
      "name": "getContentInfo",
      "outputs": [
        {
          "internalType": "string",
          "name": "name",
          "type": "string"
        },
        {
          "internalType": "uint256",
          "name": "contentId",
          "type": "uint256"
        },
        {
          "internalType": "bool",
          "name": "active",
          "type": "bool"
        }
      ],
      "payable": false,
      "stateMutability": "view",
      "type": "function"
    },
    {
      "constant": false,
      "inputs": [
        {
          "internalType": "uint256",
          "name": "_contentId",
          "type": "uint256"
        }
      ],
      "name": "activateContent",
      "outputs": [],
      "payable": false,
      "stateMutability": "nonpayable",
      "type": "function"
    },
    {
      "constant": false,
      "inputs": [
        {
          "internalType": "uint256",
          "name": "_contentId",
          "type": "uint256"
        }
      ],
      "name": "disableContent",
      "outputs": [],
      "payable": false,
      "stateMutability": "nonpayable",
      "type": "function"
    }
  ],
  "bytecode": "0x6080604052600060025534801561001557600080fd5b50610acd806100256000396000f3fe608060405234801561001057600080fd5b50600436106100885760003560e01c80637509c3301161005b5780637509c3301461021457806379102d57146102bb578063c6b9cdae14610301578063d6bfdb2a1461031e57610088565b8063110a144f1461008d5780632e310f1e146100ac578063497cc841146100db57806365251b551461014b575b600080fd5b6100aa600480360360208110156100a357600080fd5b503561033b565b005b6100c9600480360360208110156100c257600080fd5b5035610374565b60408051918252519081900360200190f35b6100aa600480360360208110156100f157600080fd5b81019060208101813564010000000081111561010c57600080fd5b82018360208201111561011e57600080fd5b8035906020019184600183028401116401000000008311171561014057600080fd5b509092509050610429565b6100aa6004803603606081101561016157600080fd5b8135919081019060408101602082013564010000000081111561018357600080fd5b82018360208201111561019557600080fd5b803590602001918460208302840111640100000000831117156101b757600080fd5b9193909290916020810190356401000000008111156101d557600080fd5b8201836020820111156101e757600080fd5b8035906020019184602083028401116401000000008311171561020957600080fd5b50909250905061053f565b6102316004803603602081101561022a57600080fd5b50356106b7565b604051808060200184815260200183151515158152602001828103825285818151815260200191508051906020019080838360005b8381101561027e578181015183820152602001610266565b50505050905090810190601f1680156102ab5780820380516001836020036101000a031916815260200191505b5094505050505060405180910390f35b6102de600480360360408110156102d157600080fd5b50803590602001356107c2565b604080516001600160a01b03909316835260208301919091528051918290030190f35b6100aa6004803603602081101561031757600080fd5b50356108cb565b6100aa6004803603602081101561033457600080fd5b503561090b565b60008181526001602052604090206002015460ff1661035957600080fd5b6000908152600160205260409020600201805460ff19169055565b6000818152602081905260408120600101546103c3576040805162461bcd60e51b81526020600482015260096024820152683737903437b63232b960b91b604482015290519081900360640190fd5b600082815260208190526040902060010154610413576040805162461bcd60e51b815260206004820152600a6024820152693737903837b93a34b7b760b11b604482015290519081900360640190fd5b5060009081526020819052604090206001015490565b6104316109b1565b604051806060016040528084848080601f0160208091040260200160405190810160405280939291908181526020018383808284376000920182905250938552505060025460208085018290526040948501849052908352600181529290912083518051949550859491936104ab935084929101906109d4565b5060208281015160018301556040928301516002928301805460ff191691151591909117905590548251828152918201859052917f512882de450b93ef9e78c553b2776dba213e405ae58f9920294d899d55ce631f91869186919081908101848480828437600083820152604051601f909101601f19169092018290039550909350505050a2505060028054600101905550565b828114610593576040805162461bcd60e51b815260206004820181905260248201527f686f6c64657220616e6420706f7274696f6e20617265206e6f74206d61746368604482015290519081900360640190fd5b6000805b828110156105c1578383828181106105ab57fe5b6020029190910135929092019150600101610597565b5080600a1461060f576040805162461bcd60e51b81526020600482015260156024820152740706f7274696f6e2073756d206973206e6f7420313605c1b604482015290519081900360640190fd5b60005b848110156106ae57600086868381811061062857fe5b905060200201356001600160a01b03169050600085858481811061064857fe5b60008c81526020818152604082206001808201805480830182559085528385200180546001600160a01b0319166001600160a01b039a909a1699909917909855600201805480890182559083529181902092029390930135920191909155505001610612565b50505050505050565b60606000806002548410610709576040805162461bcd60e51b815260206004820152601460248201527318dbdb9d195b9d081a5cc81b9bdd08195e1a5cdd60621b604482015290519081900360640190fd5b60008481526001602081815260409283902080830154600280830154835487516101009782161597909702600019011691909104601f81018590048502860185019096528585529194909360ff909216928591908301828280156107ae5780601f10610783576101008083540402835291602001916107ae565b820191906000526020600020905b81548152906001019060200180831161079157829003601f168201915b505050505092509250925092509193909250565b6000828152602081905260408120600101548190610813576040805162461bcd60e51b81526020600482015260096024820152683737903437b63232b960b91b604482015290519081900360640190fd5b600084815260208190526040902060010154610863576040805162461bcd60e51b815260206004820152600a6024820152693737903837b93a34b7b760b11b604482015290519081900360640190fd5b600084815260208190526040902060010180548490811061088057fe5b600091825260208083209091015486835290829052604090912060020180546001600160a01b0390921691859081106108b557fe5b9060005260206000200154915091509250929050565b60008181526001602052604090206002015460ff16156108ea57600080fd5b6000908152600160208190526040909120600201805460ff19169091179055565b6000818152602081905260409020600281015460019091015414610976576040805162461bcd60e51b815260206004820181905260248201527f686f6c64657220616e6420706f7274696f6e20617265206e6f74206d61746368604482015290519081900360640190fd5b60008181526020819052604081206109919060010182610a52565b5060008181526020819052604081206109ad9060020182610a52565b5050565b604051806060016040528060608152602001600081526020016000151581525090565b828054600181600116156101000203166002900490600052602060002090601f016020900481019282601f10610a1557805160ff1916838001178555610a42565b82800160010185558215610a42579182015b82811115610a42578251825591602001919060010190610a27565b50610a4e929150610a7b565b5090565b815481835581811115610a7657600083815260209020610a76918101908301610a7b565b505050565b610a9591905b80821115610a4e5760008155600101610a81565b9056fea265627a7a72315820162bb0738d9958dae7fe7db5c9295cc6d902f1492d0aa2a0ae042d6ee52876d564736f6c63430005110032",
  "source": "pragma solidity ^0.5.17;\n\n//import \"./IContents.sol\";\n\ncontract Contents {\n\n    mapping (uint256 => shareHolders) internal _shareInfo;\n\n    mapping (uint256 => Contents) internal _contentList;\n\n    event ContentsCreation (string name, uint indexed contentId );\n\n\n\n    uint256 counterContent = 0;\n\n    // Contents 구조체\n    struct Contents {\n        string name; // Content 이름\n        uint256 contentId; // Content ID\n        bool active;    // 활성상태\n    }\n\n    // 지분정보 구조체\n    struct shareHolders {\n        uint256 contentId;  // Content ID\n        address[] holderAddress;  // 지분 소유자 address\n        uint256[] holderPortion;  // 소유한 지분\n    }\n\n    function createContent(string calldata _name) external {\n        Contents memory Content = Contents({\n            name : _name,\n            contentId : counterContent,\n            active : false\n        });\n        _contentList[counterContent] = Content;\n        emit ContentsCreation(_name, counterContent);\n        counterContent += 1;\n    }\n\n    function addHolders(uint256 _contentId, address[] calldata _Holder, uint256[] calldata _portion) external {\n        require(_Holder.length == _portion.length, 'holder and portion are not match');\n        uint256 counter = 0;\n        for(uint i = 0 ; i < _portion.length ; i++) counter += _portion[i];\n        require(counter == 10 , 'portion sum is not 10');\n        for(uint i = 0 ; i < _Holder.length; i++){\n            address holder = _Holder[i];\n            uint256 portion = _portion[i];\n            _shareInfo[_contentId].holderAddress.push(holder);\n            _shareInfo[_contentId].holderPortion.push(portion);\n        }\n    }\n\n\n    function deleteHolders(uint256 _contentId) external {\n        require(_shareInfo[_contentId].holderAddress.length == _shareInfo[_contentId].holderPortion.length, 'holder and portion are not match');\n        _shareInfo[_contentId].holderAddress.length = 0;\n        _shareInfo[_contentId].holderPortion.length = 0;\n/*\n        for(uint i = 0 ; i < _shareInfo[_contentId].holderAddress.length+1; i++){\n            delete _shareInfo[_contentId].holderAddress[i];\n            delete _shareInfo[_contentId].holderPortion[i];\n        }\n        */\n    }\n\n    function getHolderInfo(uint256 _contentId, uint256 _num) external view returns( address holder, uint256 portion){\n        require(_shareInfo[_contentId].holderAddress.length != 0, 'no holder');\n        require(_shareInfo[_contentId].holderAddress.length != 0, 'no portion');\n        return(\n            _shareInfo[_contentId].holderAddress[_num],\n            _shareInfo[_contentId].holderPortion[_num]\n        );\n    }\n\n\n    function getHolderNum(uint256 _contentId) public view returns( uint256 holderNum ){\n        require(_shareInfo[_contentId].holderAddress.length != 0, 'no holder');\n        require(_shareInfo[_contentId].holderAddress.length != 0, 'no portion');\n        return(\n            _shareInfo[_contentId].holderAddress.length\n        );\n    }\n\n\n    function getContentInfo(uint256 _contentId) public view returns(string memory name, uint256 contentId, bool active){\n        require(_contentId < counterContent, 'content is not exist');\n        return(\n            _contentList[_contentId].name,\n            _contentList[_contentId].contentId,\n            _contentList[_contentId].active\n        );\n    }\n\n    function activateContent(uint256 _contentId) external {\n        require(_contentList[_contentId].active);\n        _contentList[_contentId].active = false;\n    }\n\n    function disableContent(uint256 _contentId) external {\n        require(!_contentList[_contentId].active);\n        _contentList[_contentId].active = true;\n    }\n}\n",
  "sourcePath": "/Users/WOOK/Development/haechilabs/Staby/contracts/Contents.sol",
  "compiler": {
    "name": "solc",
    "version": "0.5.17+commit.d19bba13.Emscripten.clang"
  },
  "schemaVersion": "3.3.1",
  "updatedAt": "2020-11-08T19:56:29.835Z",
  "devdoc": {
    "methods": {}
  },
  "userdoc": {
    "methods": {}
  }
}