{
  "contractName": "Contents",
  "abi": [
    {
      "anonymous": false,
      "inputs": [
        {
          "indexed": false,
          "internalType": "string",
          "name": "name",
          "type": "string"
        },
        {
          "indexed": true,
          "internalType": "uint256",
          "name": "contentId",
          "type": "uint256"
        }
      ],
      "name": "ContentsCreation",
      "type": "event"
    },
    {
      "constant": false,
      "inputs": [
        {
          "internalType": "string",
          "name": "_name",
          "type": "string"
        },
        {
          "internalType": "uint256",
          "name": "_contentId",
          "type": "uint256"
        }
      ],
      "name": "createContent",
      "outputs": [],
      "payable": false,
      "stateMutability": "nonpayable",
      "type": "function"
    },
    {
      "constant": false,
      "inputs": [
        {
          "internalType": "uint256",
          "name": "_contentId",
          "type": "uint256"
        },
        {
          "internalType": "address",
          "name": "_Holder",
          "type": "address"
        },
        {
          "internalType": "uint256",
          "name": "_portion",
          "type": "uint256"
        }
      ],
      "name": "updateHolders",
      "outputs": [],
      "payable": false,
      "stateMutability": "nonpayable",
      "type": "function"
    },
    {
      "constant": false,
      "inputs": [
        {
          "internalType": "uint256",
          "name": "_contentId",
          "type": "uint256"
        }
      ],
      "name": "deleteHolders",
      "outputs": [],
      "payable": false,
      "stateMutability": "nonpayable",
      "type": "function"
    },
    {
      "constant": true,
      "inputs": [
        {
          "internalType": "uint256",
          "name": "contentId",
          "type": "uint256"
        },
        {
          "internalType": "uint256",
          "name": "_num",
          "type": "uint256"
        }
      ],
      "name": "getHolderId",
      "outputs": [
        {
          "internalType": "uint256",
          "name": "",
          "type": "uint256"
        }
      ],
      "payable": false,
      "stateMutability": "view",
      "type": "function"
    },
    {
      "constant": true,
      "inputs": [
        {
          "internalType": "uint256",
          "name": "contentId",
          "type": "uint256"
        },
        {
          "internalType": "uint256",
          "name": "_num",
          "type": "uint256"
        }
      ],
      "name": "getHolderAddress",
      "outputs": [
        {
          "internalType": "address",
          "name": "",
          "type": "address"
        }
      ],
      "payable": false,
      "stateMutability": "view",
      "type": "function"
    },
    {
      "constant": true,
      "inputs": [
        {
          "internalType": "uint256",
          "name": "contentId",
          "type": "uint256"
        },
        {
          "internalType": "uint256",
          "name": "_num",
          "type": "uint256"
        }
      ],
      "name": "getHolderPortion",
      "outputs": [
        {
          "internalType": "uint256",
          "name": "",
          "type": "uint256"
        }
      ],
      "payable": false,
      "stateMutability": "view",
      "type": "function"
    },
    {
      "constant": true,
      "inputs": [
        {
          "internalType": "uint256",
          "name": "contentId",
          "type": "uint256"
        }
      ],
      "name": "getHolderLength",
      "outputs": [
        {
          "internalType": "uint256",
          "name": "",
          "type": "uint256"
        }
      ],
      "payable": false,
      "stateMutability": "view",
      "type": "function"
    },
    {
      "constant": true,
      "inputs": [
        {
          "internalType": "uint256",
          "name": "contentId",
          "type": "uint256"
        }
      ],
      "name": "getContentName",
      "outputs": [
        {
          "internalType": "string",
          "name": "",
          "type": "string"
        }
      ],
      "payable": false,
      "stateMutability": "view",
      "type": "function"
    },
    {
      "constant": true,
      "inputs": [
        {
          "internalType": "uint256",
          "name": "contentId",
          "type": "uint256"
        }
      ],
      "name": "getContentID",
      "outputs": [
        {
          "internalType": "uint256",
          "name": "",
          "type": "uint256"
        }
      ],
      "payable": false,
      "stateMutability": "view",
      "type": "function"
    }
  ],
  "bytecode": "0x6080604052600060025534801561001557600080fd5b506106a3806100256000396000f3fe608060405234801561001057600080fd5b50600436106100935760003560e01c80639e3d4c7c116100665780639e3d4c7c1461020d578063a51eac111461023c578063c01595ba1461025f578063d6bfdb2a14610282578063e04658b71461029f57610093565b806308a39db41461009857806327b697f0146100d75780633a1b303814610149578063760d727b1461017b575b600080fd5b6100bb600480360360408110156100ae57600080fd5b50803590602001356102bc565b604080516001600160a01b039092168252519081900360200190f35b610147600480360360408110156100ed57600080fd5b81019060208101813564010000000081111561010857600080fd5b82018360208201111561011a57600080fd5b8035906020019184600183028401116401000000008311171561013c57600080fd5b9193509150356102f5565b005b6101476004803603606081101561015f57600080fd5b508035906001600160a01b0360208201351690604001356103dc565b6101986004803603602081101561019157600080fd5b5035610439565b6040805160208082528351818301528351919283929083019185019080838360005b838110156101d25781810151838201526020016101ba565b50505050905090810190601f1680156101ff5780820380516001836020036101000a031916815260200191505b509250505060405180910390f35b61022a6004803603602081101561022357600080fd5b50356104d9565b60408051918252519081900360200190f35b61022a6004803603604081101561025257600080fd5b50803590602001356104ef565b61022a6004803603604081101561027557600080fd5b5080359060200135610502565b6101476004803603602081101561029857600080fd5b5035610532565b61022a600480360360208110156102b557600080fd5b50356105b2565b60008281526020819052604081206001018054839081106102d957fe5b6000918252602090912001546001600160a01b03169392505050565b6102fd6105b9565b6040805160606020601f870181900402820181018352918101858152909182919087908790819085018382808284376000920182905250938552505050602091820185905284815260018252604090208251805193945084939192610367928492909101906105d3565b5060208201518160010155905050817f512882de450b93ef9e78c553b2776dba213e405ae58f9920294d899d55ce631f858560405180806020018281038252848482818152602001925080828437600083820152604051601f909101601f19169092018290039550909350505050a250505050565b60008381526020818152604082209485556001808601805480830182559084528284200180546001600160a01b0319166001600160a01b039690961695909517909455600294850180548086018255908352912001558154019055565b60008181526001602081815260409283902080548451600294821615610100026000190190911693909304601f810183900483028401830190945283835260609390918301828280156104cd5780601f106104a2576101008083540402835291602001916104cd565b820191906000526020600020905b8154815290600101906020018083116104b057829003601f168201915b50505050509050919050565b6000908152600160208190526040909120015490565b5060009081526020819052604090205490565b600082815260208190526040812060020180548390811061051f57fe5b9060005260206000200154905092915050565b600081815260208190526040902081815560010180548061054f57fe5b60008281526020808220830160001990810180546001600160a01b03191690559092019092558282528190526040902060020180548061058b57fe5b60008281526020812082016000199081019190915590810190915560028054909101905550565b5060025490565b604051806040016040528060608152602001600081525090565b828054600181600116156101000203166002900490600052602060002090601f016020900481019282601f1061061457805160ff1916838001178555610641565b82800160010185558215610641579182015b82811115610641578251825591602001919060010190610626565b5061064d929150610651565b5090565b61066b91905b8082111561064d5760008155600101610657565b9056fea265627a7a72315820e3cb6169c1e6e3710eb66d89792fcfbfc52a3164f51f339778b16a4bfb0c193564736f6c63430005110032",
  "source": "pragma solidity ^0.5.0;\n\nimport \"./IContents.sol\";\n\ncontract Contents is IContents{\n\n    mapping (uint256 => shareHolders) internal _shareInfo;\n\n    mapping (uint256 => Contents) internal _contentList;\n\n    event ContentsCreation (string name, uint indexed contentId );\n\n    uint256 len = 0;\n\n    // Contents 구조체\n    struct Contents {\n        string name; // Content 이름\n        uint256 contentId; // Content ID\n    }\n\n    // 지분정보 구조체\n    struct shareHolders {\n        uint256 contentId;  // Content ID\n        address[] holderAddress;  // 지분 소유자 address\n        uint256[] holderPortion;  // 소유한 지분 %\n    }\n\n    function createContent(string calldata _name, uint256 _contentId) external {\n        Contents memory Content = Contents({\n            name : _name,\n            contentId : _contentId\n        });\n        _contentList[_contentId] = Content;\n        emit ContentsCreation(_name, _contentId);\n    }\n\n\n    function updateHolders(uint256 _contentId, address _Holder, uint _portion) external {\n        _shareInfo[_contentId].contentId = _contentId;\n        _shareInfo[_contentId].holderAddress.push(_Holder);\n        _shareInfo[_contentId].holderPortion.push(_portion);\n        len ++;\n    }\n\n\n    function deleteHolders(uint256 _contentId) external {\n        _shareInfo[_contentId].contentId = _contentId;\n        _shareInfo[_contentId].holderAddress.pop();\n        _shareInfo[_contentId].holderPortion.pop();\n        len --;\n    }\n\n/*\n    function getHolderInfo(uint256 contentId, uint256 _num) external view returns(uint256, address, uint256){\n        return(\n        _shareInfo[contentId].contentId,\n        _shareInfo[contentId].holderAddress[_num],\n        _shareInfo[contentId].holderPortion[_num]\n        );\n    }\n*/\n    function getHolderId(uint256 contentId, uint256 _num) external view returns(uint256){\n        return(\n        _shareInfo[contentId].contentId\n        );\n    }\n\n    function getHolderAddress(uint256 contentId, uint256 _num) external view returns( address){\n        return(\n        _shareInfo[contentId].holderAddress[_num]\n        );\n    }\n\n    function getHolderPortion(uint256 contentId, uint256 _num) external view returns( uint256){\n        return(\n        _shareInfo[contentId].holderPortion[_num]\n        );\n    }\n\n    function getHolderLength(uint256 contentId) external view returns(uint256){\n        return(\n        len\n        );\n    }\n\n/*\n    function getContentInfo(uint256 contentId) external view returns(string memory, uint256){\n        return(\n          _contentList[contentId].name,\n          _contentList[contentId].contentId\n          );\n    }\n*/\n    function getContentName(uint256 contentId) external view returns(string memory){\n        return(\n          _contentList[contentId].name\n          );\n    }\n\n    function getContentID(uint256 contentId) external view returns(uint256){\n        return(\n          _contentList[contentId].contentId\n          );\n    }\n}\n",
  "sourcePath": "/Users/WOOK/Development/haechilabs/Staby/contracts/Contents.sol",
  "compiler": {
    "name": "solc",
    "version": "0.5.17+commit.d19bba13.Emscripten.clang"
  },
  "schemaVersion": "3.3.1",
  "updatedAt": "2020-11-06T02:19:27.378Z",
  "devdoc": {
    "methods": {}
  },
  "userdoc": {
    "methods": {}
  }
}